:020000040800F2
:1000000000500020DD0500086D050008730500089C
:10001000790500087F05000885050008000000003C
:100020000000000000000000000000008B05000838
:100030009705000800000000A3050008AF050008B0
:1000400025060008250600082506000825060008E4
:1000500025060008250600082506000825060008D4
:1000600025060008250600082506000825060008C4
:1000700025060008250600082506000825060008B4
:1000800025060008250600082506000825060008A4
:10009000BD050008250600082506000825060008FD
:1000A0002506000825060008250600082506000884
:1000B0002506000825060008250600082506000874
:1000C0002506000825060008250600082506000864
:1000D0002506000825060008250600082506000854
:1000E0002506000825060008250600080000000077
:1000F0000000000000000000000000000000000000
:0C01000000000000000000005FF808F1A3
:10010C0010B5054C237833B9044B13B10448AFF345
:10011C0000800123237010BD84010020000000002A
:10012C00EC7C000808B5034B1BB103490348AFF343
:10013C00008008BD0000000088010020EC7C000855
:10014C0080B500AF00F06AFA00F06EF800F0FCF831
:10015C0007F0E0F800F0C2F82D4B1B78012B53D1BF
:10016C002C4B1B78022B28D0022B37DC002B02D017
:10017C00012B13D032E000221021274800F066FD3D
:10018C00264B1B789AB264232549264802F0FCFFC3
:10019C0001221021204800F059FD32E001220821F3
:1001AC001D4800F053FD4FF4FA7000F043F90022A3
:1001BC000821194800F04AFD23E001224FF4806128
:1001CC00154800F043FD4FF4FA7000F033F90022AB
:1001DC004FF48061104800F039FD12E0002210212C
:1001EC000D4800F033FD0D4B1B789AB264230C497B
:1001FC000C4802F0C9FF01221021074800F026FD2F
:10020C0000BF034B00221A70052000F069FAA3E727
:10021C00AD010020A801002000080140AC01002025
:10022C00A0010020B001002080B594B000AF07F110
:10023C00280328220021184607F018FD07F11403A3
:10024C0000221A605A609A60DA601A613B1D002223
:10025C001A605A609A60DA600123BB624FF48033F3
:10026C00FB6200233B630123BB6302237B644FF4DB
:10027C008033BB644FF4E013FB6407F1280318468A
:10028C0002F06AFA0346002B01D000F0E7F80F23C6
:10029C007B610223BB610023FB614FF480633B62F3
:1002AC0000237B6207F114030221184602F0D6FCEE
:1002BC000346002B01D000F0D1F810237B60002303
:1002CC003B613B1D184602F025FE0346002B01D076
:1002DC0000F0C4F800BF5037BD4680BD80B500AFFC
:1002EC00174B184A1A60164B4FF482725A60144B13
:1002FC0000229A60124B0022DA60114B00221A6124
:10030C000F4B00225A610E4B4FF400729A610C4B4A
:10031C002022DA610A4B00221A62094B00225A622F
:10032C00074B00229A62064B0A22DA62044802F05A
:10033C00A7FE0346002B01D000F090F800BF80BD53
:10034C00B00100200030014080B588B000AF07F14B
:10035C00100300221A605A609A60DA60324B9B6973
:10036C00314A43F0100393612F4B9B6903F0100348
:10037C00FB60FB682C4B9B692B4A43F02003936179
:10038C00294B9B6903F02003BB60BB68264B9B6920
:10039C00254A43F004039361234B9B6903F0040348
:1003AC007B607B6800224FF40051204800F04EFC2B
:1003BC0000224FF481611E4800F048FC01221021FC
:1003CC001B4800F043FC4FF400533B6101237B615D
:1003DC000023BB610223FB6107F11003194613488C
:1003EC0000F0B0FA18233B6101237B610023BB6151
:1003FC000123FB6107F1100319460D4800F0A2FA26
:10040C004FF480633B6101237B610023BB610223BA
:10041C00FB6107F110031946054800F093FA00BF81
:10042C002037BD4680BD00BF0010024000100140C7
:10043C000008014080B485B000AF78600023FB60F9
:10044C0002E0FB680133FB60FA687B689A42F8D3E0
:10045C0000BF00BF1437BD4680BC704780B400AFEE
:10046C0072B600BFFEE7000080B485B000AF154B3C
:10047C009B69144A43F001039361124B9B6903F08F
:10048C000103BB60BB680F4BDB690E4A43F0805322
:10049C00D3610C4BDB6903F080537B607B680A4BA8
:1004AC005B68FB60FB6823F0E063FB60FB6843F078
:1004BC000073FB60044AFB68536000BF1437BD46F1
:1004CC0080BC7047001002400000014080B588B02D
:1004DC0000AF786007F1100300221A605A609A602E
:1004EC00DA607B681B681B4A93422FD11A4B9B69BD
:1004FC00194A43F480539361174B9B6903F480535F
:10050C00FB60FB68144B9B69134A43F00403936133
:10051C00114B9B6903F00403BB60BB68A0233B61D8
:10052C0002237B610323FB6107F1100319460B487F
:10053C0000F008FA40233B6100237B610023BB6180
:10054C0007F110031946054800F0FCF900BF2037ED
:10055C00BD4680BD00300140001002400008014043
:10056C0080B400AFFEE780B400AFFEE780B400AF0C
:10057C00FEE780B400AFFEE780B400AFFEE780B4C6
:10058C0000AF00BFBD4680BC704780B400AF00BF59
:10059C00BD4680BC704780B400AF00BFBD4680BC78
:1005AC00704780B500AF00F07FF800BF80BD000041
:1005BC0080B500AF024800F086FC00BF80BD00BFD4
:1005CC00D40E002080B400AF00BFBD4680BC704785
:1005DC00FFF7F8FF0B480C490C4A002302E0D458F3
:1005EC00C4500433C4188C42F9D3094A094C002373
:1005FC0001E013600432A242FBD307F03FFBFFF78C
:10060C009FFD70470000002084010020787D0008C9
:10061C0084010020E4130020FEE7000080B500AF49
:10062C00084B1B68074A43F010031360032000F0CB
:10063C0047F90F2000F008F8FFF716FF00231846C3
:10064C0080BD00BF0020024080B582B000AF786052
:10065C00124B1A68124B1B7819464FF47A73B3FB82
:10066C00F1F3B2FBF3F3184600F05FF90346002BED
:10067C0001D001230EE07B680F2B0AD80022796889
:10068C004FF0FF3000F027F9064A7B681360002317
:10069C0000E0012318460837BD4680BD0800002045
:1006AC00100000200C00002080B400AF054B1B781C
:1006BC001A46054B1B681344034A136000BFBD4622
:1006CC0080BC7047100000200802002080B400AFEE
:1006DC00024B1B681846BD4680BC704708020020C0
:1006EC0080B584B000AF7860FFF7F0FFB8607B682E
:1006FC00FB60FB68B3F1FF3F05D00A4B1B781A4631
:10070C00FB681344FB6000BFFFF7E0FF0246BB68C9
:10071C00D31AFA689A42F7D800BF00BF1037BD460B
:10072C0080BD00BF1000002080B485B000AF7860A1
:10073C007B6803F00703FB600C4BDB68BB60BA689B
:10074C004FF6FF031340BB60FB681A02BB681343F0
:10075C0043F0BF6343F40033BB60044ABB68D3600F
:10076C0000BF1437BD4680BC704700BF00ED00E0F1
:10077C0080B400AF044BDB681B0A03F00703184678
:10078C00BD4680BC704700BF00ED00E080B483B074
:10079C0000AF0346FB7197F90730002B0BDBFB799D
:1007AC0003F01F02064997F907305B09012000FA94
:1007BC0002F241F8232000BF0C37BD4680BC7047C5
:1007CC0000E100E080B483B000AF03463960FB71F8
:1007DC0097F90730002B0ADB3B68DAB20C4997F922
:1007EC0007301201D2B20B4483F800230AE03B68B5
:1007FC00DAB20849FB7903F00F03043B1201D2B2C1
:10080C000B441A7600BF0C37BD4680BC704700BF46
:10081C0000E100E000ED00E080B489B000AFF860CA
:10082C00B9607A60FB6803F00703FB61FB69C3F1F5
:10083C000703042B28BF0423BB61FB690433062B7D
:10084C0002D9FB69033B00E000237B614FF0FF32D0
:10085C00BB6902FA03F3DA43BB681A407B699A401E
:10086C004FF0FF317B6901FA03F3D9437B680B40EE
:10087C00134318462437BD4680BC704780B582B000
:10088C0000AF78607B68013BB3F1807F01D301231B
:10089C000FE00A4A7B68013B53600F214FF0FF3099
:1008AC00FFF790FF054B00229A60044B07221A6059
:1008BC00002318460837BD4680BD00BF10E000E09D
:1008CC0080B582B000AF78607868FFF72DFF00BF6D
:1008DC000837BD4680BD80B586B000AF0346B96011
:1008EC007A60FB7300237B61FFF742FF78617A68C3
:1008FC00B9687869FFF790FF024697F90F301146F7
:10090C001846FFF75FFF00BF1837BD4680BD80B5A6
:10091C0082B000AF0346FB7197F907301846FFF71A
:10092C0035FF00BF0837BD4680BD80B582B000AF33
:10093C0078607868FFF7A2FF034618460837BD4673
:10094C0080BD000080B48BB000AF786039600023AC
:10095C007B6200233B6269E101227B6A02FA03F3AA
:10096C00FB613B681B68FA691340BB61BA69FB69A0
:10097C009A4240F058813B685B689A4A93425ED039
:10098C00984A934275D8984A934258D0964A9342C3
:10099C006FD8964A934252D0944A934269D8944A5B
:1009AC0093424CD0924A934263D8924A934246D097
:1009BC00904A93425DD8122B2AD8122B59D801A2F7
:1009CC0052F823F04B0A0008250A0008370A0008E1
:1009DC00790A00087F0A00087F0A00087F0A0008CD
:1009EC007F0A00087F0A00087F0A00087F0A0008B7
:1009FC007F0A00087F0A00087F0A00087F0A0008A7
:100A0C007F0A00087F0A00082D0A0008410A000826
:100A1C00794A934213D02CE03B68DB683B6229E0B7
:100A2C003B68DB6804333B6224E03B68DB680833DB
:100A3C003B621FE03B68DB680C333B621AE03B68AF
:100A4C009B68002B02D104233B6213E03B689B683C
:100A5C00012B05D108233B627B68FA691A6109E016
:100A6C0008233B627B68FA695A6103E000233B620E
:100A7C0000E000BFBB69FF2B01D87B6801E07B68FD
:100A8C0004337B61BB69FF2B02D87B6A9B0002E0BD
:100A9C007B6A083B9B003B617B691A680F213B69B1
:100AAC0001FA03F3DB431A40396A3B6901FA03F399
:100ABC001A437B691A603B685B6803F08053002B18
:100ACC0000F0B1804D4B9B694C4A43F0010393619C
:100ADC004A4B9B6903F00103BB60BB68484A7B6AC5
:100AEC009B08023352F82330FB607B6A03F003034C
:100AFC009B000F2202FA03F3DB43FA681340FB60FE
:100B0C007B68404A934213D07B683F4A93420DD096
:100B1C007B683E4A934207D07B683D4A934201D1A1
:100B2C00032306E0042304E0022302E0012300E097
:100B3C0000237A6A02F0030292009340FA6813438E
:100B4C00FB602F497B6A9B080233FA6841F823202B
:100B5C003B685B6803F48013002B06D02D4B9A681E
:100B6C002C49BB6913438B6006E02A4B9A68BB691E
:100B7C00DB43284913408B603B685B6803F400132C
:100B8C00002B06D0234BDA682249BB691343CB6098
:100B9C0006E0204BDA68BB69DB431E491340CB608F
:100BAC003B685B6803F40033002B06D0194B5A6882
:100BBC001849BB6913434B6006E0164B5A68BB6976
:100BCC00DB43144913404B603B685B6803F4803390
:100BDC00002B21D00F4B1A680E49BB6913430B60D5
:100BEC0021E000BF00003210000031100000221084
:100BFC000000211000001210000011100010024023
:100C0C000000014000080140000C014000100140B0
:100C1C0000140140000401400B4B1A68BB69DB4314
:100C2C00094913400B607B6A01337B623B681A688D
:100C3C007B6A22FA03F3002B7FF48EAE00BF00BF59
:100C4C002C37BD4680BC70470004014080B483B093
:100C5C0000AF78600B467B8013467B707B78002B53
:100C6C0003D07A887B681A6103E07B881A047B685E
:100C7C001A6100BF0C37BD4680BC7047F0B58BB015
:100C8C0006AF78607B68002B01D10123F1E07B6813
:100C9C0093F8A932DBB2002B06D17B68002283F8D3
:100CAC00A822786806F038FD7B68032283F8A92215
:100CBC007B681B68184602F077FC7B681B683B60FE
:100CCC007E686D4606F110040FCC0FC523682B60AF
:100CDC00331D0ECB386802F041FC0346002B05D0C7
:100CEC007B68022283F8A9220123C2E07B681B687F
:100CFC000021184602F072FC0023FB7340E0FB7BE2
:100D0C0079685A1C13469B001344DB000B440133D7
:100D1C0001221A70FB7B79685A1C13469B00134402
:100D2C00DB000B44FA7B1A70FB7B79685A1C134668
:100D3C009B001344DB000B44033300221A70FA7B34
:100D4C00796813469B001344DB000B4438330022B4
:100D5C001A60FA7B796813469B001344DB000B4442
:100D6C003C3300221A60FA7B796813469B001344CB
:100D7C00DB000B44403300221A60FB7B0133FB7316
:100D8C00FA7B7B685B689A42B9D30023FB7344E01F
:100D9C00FA7B796813469B001344DB000B4403F287
:100DAC00691300221A70FA7B796813469B0013446E
:100DBC00DB000B4403F5B473FA7B1A70FA7B796889
:100DCC0013469B001344DB000B4403F26B1300220D
:100DDC001A70FA7B796813469B001344DB000B44B2
:100DEC0003F5BC7300221A60FA7B796813469B00EA
:100DFC001344DB000B4403F5BE7300221A60FA7B2C
:100E0C00796813469B001344DB000B4403F5C07355
:100E1C0000221A60FB7B0133FB73FA7B7B685B68F7
:100E2C009A42B5D37B681B683B607E686D4606F1C1
:100E3C0010040FCC0FC523682B60331D0ECB386804
:100E4C0002F0D8FB0346002B05D07B68022283F806
:100E5C00A92201230DE07B68002283F824207B6803
:100E6C00012283F8A9227B681B68184604F059FEFE
:100E7C00002318461437BD46F0BD80B582B000AFD4
:100E8C0078607B6893F8A832012B01D1022316E01D
:100E9C007B68012283F8A8227B681B68184602F045
:100EAC006DFB0121786806F0AAFE7B681B6818466A
:100EBC0004F02DFE7B68002283F8A822002318463C
:100ECC000837BD4680BD80B588B000AF78607B68C0
:100EDC001B68184604F02FFEB861BB6903F400438D
:100EEC00002B03D0786800F01BFB19E1BB6903F4FD
:100EFC008063002B13D07B681B68B3F844309AB224
:100F0C007B681B6822F4806292B2A3F84420786854
:100F1C0006F07DFC0021786800F005F900E1BB6962
:100F2C0003F48043002B0CD07B681B68B3F844306F
:100F3C009AB27B681B6822F4804292B2A3F84420D8
:100F4C00EEE0BB6903F40053002B0CD07B681B68EC
:100F5C00B3F844309AB27B681B6822F4005292B208
:100F6C00A3F84420DCE0BB6903F48053002B27D0AA
:100F7C007B681B68B3F840309AB27B681B6822F020
:100F8C00040292B2A3F840207B681B68B3F840308F
:100F9C009AB27B681B6822F0080292B2A3F8402038
:100FAC00786806F06DFC7B681B68B3F844309AB225
:100FBC007B681B6822F4805292B2A3F84420AFE005
:100FCC00BB6903F40063002B00F083800023FB77E4
:100FDC0010E07B681B681A46FB7F9B001A44FB7F62
:100FEC00128892B25B0020333B4423F8182CFB7F11
:100FFC000133FB77FB7F072BEBD97B681B68B3F8BE
:10100C0040309AB27B681B6842F0010292B2A3F89E
:10101C0040207B681B68B3F840309AB27B681B6831
:10102C0022F0010292B2A3F8402000BF7B681B683B
:10103C00B3F844309BB203F48063002BF6D07B688A
:10104C001B68B3F844309AB27B681B6822F4806248
:10105C0092B2A3F844200023FB770FE0FB7F7A6861
:10106C0012681146FA7F92000A445B0020333B441D
:10107C0033F8183C1380FB7F0133FB77FB7F072B86
:10108C00ECD97B681B68B3F840309AB27B681B685C
:10109C0042F0080292B2A3F840207B681B68B3F8B8
:1010AC0044309AB27B681B6822F4006292B2A3F8B7
:1010BC0044207B681B68B3F840309AB27B681B688D
:1010CC0042F0040292B2A3F84020786806F0BEFB0E
:1010DC0026E0BB6903F40073002B0FD07B681B6800
:1010EC00B3F844309AB27B681B6822F4007292B257
:1010FC00A3F84420786806F07CFB11E0BB6903F48C
:10110C008073002B0CD07B681B68B3F844309AB208
:10111C007B681B6822F4807292B2A3F8442000BF53
:10112C002037BD4680BD80B582B000AF78600B46DD
:10113C00FB707B6893F8A832012B01D1022313E0DA
:10114C007B68012283F8A8227B68FA7883F8242034
:10115C007B681B68FA781146184604F0C5FC7B685E
:10116C00002283F8A822002318460837BD4680BD0C
:10117C0080B584B000AF7860084611461A46034625
:10118C00FB700B463B801346BB700023FB7297F938
:10119C000330002B0EDAFB7803F007035A1C1346BE
:1011AC009B001344DB007A681344FB60FB6801224C
:1011BC005A700EE0FB7803F0070213469B001344B1
:1011CC00DB0003F5B4737A681344FB60FB68002200
:1011DC005A70FB7803F00703DAB2FB681A703A888E
:1011EC00FB681A61FB68BA78DA70BB78022B02D103
:1011FC00FB6800221A717B6893F8A832012B01D18D
:10120C0002230EE07B68012283F8A8227B681B680E
:10121C00F968184602F00EFA7B68002283F8A822BF
:10122C00FB7A18461037BD4680BD80B584B000AF40
:10123C0078600B46FB7097F90330002B0EDAFB78C5
:10124C0003F007035A1C13469B001344DB007A6817
:10125C001344FB60FB6801225A700EE0FB7803F02C
:10126C00070213469B001344DB0003F5B4737A6842
:10127C001344FB60FB6800225A70FB7803F00703F1
:10128C00DAB2FB681A707B6893F8A832012B01D193
:10129C0002230EE07B68012283F8A8227B681B687E
:1012AC00F968184602F086FD7B68002283F8A822B4
:1012BC00002318461037BD4680BD80B586B000AF00
:1012CC00F8607A603B600B46FB72FB7A03F0070216
:1012DC0013469B001344DB0003F5B473FA68134404
:1012EC007B617B697A685A617B693A689A617B6930
:1012FC000022DA617B6900225A70FB7A03F0070343
:10130C00DAB27B691A70FB681B687969184602F0BF
:10131C003DFF002318461837BD4680BD80B483B00E
:10132C0000AF78600B46FB70FB7803F0070279681E
:10133C0013469B001344DB000B4403F5C2731B687C
:10134C0018460C37BD4680BC704780B586B000AFE0
:10135C00F8607A603B600B46FB72FB7A03F0070384
:10136C005A1C13469B001344DB00FA6813447B6140
:10137C007B697A685A617B693A689A617B69012258
:10138C0083F824207B693A681A627B690022DA614F
:10139C007B6901225A70FB7A03F00703DAB27B698E
:1013AC001A70FB681B687969184602F0EFFE00237F
:1013BC0018461837BD4680BD80B584B000AF786044
:1013CC000B46FB70FB7803F007027B685B689A4264
:1013DC0001D901234CE097F90330002B0EDAFB788E
:1013EC0003F007035A1C13469B001344DB007A6876
:1013FC001344FB60FB6801225A700CE0FA78134628
:10140C009B001344DB0003F5B4737A681344FB6050
:10141C00FB6800225A70FB6801229A70FB7803F07B
:10142C000703DAB2FB681A707B6893F8A832012BB9
:10143C0001D102231CE07B68012283F8A8227B687F
:10144C001B68F968184604F052FAFB7803F007039E
:10145C00002B08D17B681A687B6803F52C7319463E
:10146C00104604F077FB7B68002283F8A822002347
:10147C0018461037BD4680BD80B584B000AF78608B
:10148C000B46FB70FB7803F00F027B685B689A429B
:10149C0001D9012340E097F90330002B0EDAFB78D9
:1014AC0003F007035A1C13469B001344DB007A68B5
:1014BC001344FB60FB6801225A700EE0FB7803F0CA
:1014CC00070213469B001344DB0003F5B4737A68E0
:1014DC001344FB60FB6800225A70FB6800229A7070
:1014EC00FB7803F00703DAB2FB681A707B6893F899
:1014FC00A832012B01D102230EE07B68012283F874
:10150C00A8227B681B68F968184604F040FA7B68CF
:10151C00002283F8A822002318461037BD4680BD50
:10152C0080B596B000AF7860BFE37B681B68B3F8FA
:10153C004430A7F84E30B7F84E30DBB203F00F034F
:10154C0087F84D3097F84D30002B40F07981B7F883
:10155C004E3003F01003002B52D17B681B681B88A4
:10156C009BB223F4E14323F07003FB817B681A6880
:10157C00FB896FEA43436FEA53439BB213807B684A
:10158C0028337B657B681B68B3F850309BB21A46D6
:10159C007B6D1B78DB00134402335B007A681268A6
:1015AC00134403F580631B88C3F309027B6DDA6176
:1015BC007B6D5A697B6DDB691A447B6D5A61002126
:1015CC00786806F0FCF87B6893F82430DBB2002BCB
:1015DC0000F06B837B6D9B69002B40F066837B680E
:1015EC0093F82430DBB263F07F03DAB27B681B68BC
:1015FC0092B2A3F84C207B68002283F8242054E399
:10160C007B6803F5B4737B657B681B681B88A7F844
:10161C004A30B7F84A3003F40063002B34D07B68AF
:10162C001B68B3F850309BB21A467B6D1B78DB00FD
:10163C00134406335B007A681268134403F5806325
:10164C001B88C3F309027B6DDA617B6818687B68C1
:10165C0003F52C717B6DDA887B6DDB699BB204F032
:10166C00C9FA7B681B681B889AB240F68F731340CB
:10167C003B827B681B683A8A42F0800292B21A80E5
:10168C00786806F06FF810E3B7F94A30002B80F257
:10169C000C837B681B681B889AB240F68F731340CF
:1016AC00FB837B681B68FA8B42F0800292B21A8033
:1016BC007B681B68B3F850309BB21A467B6D1B7865
:1016CC00DB00134406335B007A681268134403F59D
:1016DC0080631B88C3F309027B6DDA617B6DDB6968
:1016EC00002B19D07B6D5B69002B15D07B681868BB
:1016FC007B6D59697B6DDA887B6DDB699BB204F07D
:10170C0079FA7B6D5A697B6DDB691A447B6D5A6182
:10171C000021786806F038F87B681B681B88A7F8EE
:10172C004A30B7F84A3003F40063002B40F0BD8216
:10173C00B7F84A3003F44053B3F5405F00F0B5827C
:10174C007B681B68BB617B681B68B3F850309BB22D
:10175C001A46BB691344BB61BB6903F20C437B6142
:10176C007B691B889BB2C3F309039AB27B691A800D
:10177C007B6D1B693E2B1DD97B6D1B695B097B64E3
:10178C007B6D1B6903F01F03002B02D17B6C013BAB
:10179C007B647B691B889AB27B6C9BB29B029BB26D
:1017AC0013439BB26FEA43436FEA53439AB27B698C
:1017BC001A8026E07B6D1B69002B0AD17B691B8884
:1017CC009BB26FEA43436FEA53439AB27B691A8028
:1017DC0017E07B6D1B695B087B647B6D1B6903F0F9
:1017EC000103002B02D07B6C01337B647B691B886B
:1017FC009AB27B6C9BB29B029BB213439AB27B69ED
:10180C001A807B681B681B889BB223F4804323F0EF
:10181C0070037B827B8A83F480537B827B8A83F484
:10182C0000537B827B681A687B8A43F07F4343F4C6
:10183C007F0343F4004343F080039BB2138034E2F4
:10184C007B681B681A4697F84D309B0013441B8825
:10185C00A7F84A30B7F94A30002B80F2FC807B683D
:10186C001B681A4697F84D309B0013441B889AB29C
:10187C0040F68F731340A7F848307B681B681A46F4
:10188C0097F84D309B001344B7F8482042F0800283
:10189C0092B21A8097F84D2013469B001344DB003C
:1018AC0003F5B4737A6813447B657B6D1B7B002B4B
:1018BC0025D17B681B68B3F850309BB21A467B6D00
:1018CC001B78DB00134406335B007A681268134400
:1018DC0003F580631B88C3F30903A7F85030B7F8EE
:1018EC005030002B00F092807B6818687B6D596932
:1018FC007B6DDA88B7F8503004F07CF986E07B6DAC
:10190C00DB78022B0AD1B7F84A301A46796D786821
:10191C0000F0D9F90346A7F8503077E07B681B68D4
:10192C001A467B6D1B789B0013441B889BB223F4D7
:10193C00E04323F07003A7F852307B681B681A460B
:10194C007B6D1B789B001A44B7F8523043F07F43F1
:10195C0043F47F0343F4004343F0C0039BB2138072
:10196C007B681B681A467B6D1B789B0013441B8895
:10197C009BB203F48043002B24D07B681B68B3F824
:10198C0050309BB21A467B6D1B78DB00134402333C
:10199C005B007A681268134403F580631B88C3F3F9
:1019AC000903A7F85030B7F85030002B2ED07B68C5
:1019BC0018687B6D59697B6D1A89B7F8503004F043
:1019CC0019F923E07B681B68B3F850309BB21A46B8
:1019DC007B6D1B78DB00134406335B007A6812685E
:1019EC00134403F580631B88C3F30903A7F8503035
:1019FC00B7F85030002B09D07B6818687B6D59699B
:101A0C007B6D5A89B7F8503004F0F4F87B6DDA69C5
:101A1C00B7F850301A447B6DDA617B6D5A69B7F8B0
:101A2C0050301A447B6D5A617B6D9B69002B05D03D
:101A3C00B7F850207B6D1B699A4206D27B6D1B78E0
:101A4C001946786805F0A0FE05E07B681B68796D87
:101A5C00184602F09BFBB7F84A3003F08003002BCA
:101A6C0000F0238197F84D305A1C13469B00134409
:101A7C00DB007A6813447B657B681B681A4697F811
:101A8C004D309B0013441B889BB223F4E14323F09D
:101A9C007003A7F842307B681B681A4697F84D30E4
:101AAC009B001A44B7F842306FEA43436FEA534342
:101ABC009BB213807B6DDB78012B40F0A2807B6D99
:101ACC0000229A617B6D1B7B002B00F09380B7F892
:101ADC004A3003F04003002B46D07B6D5B78002B23
:101AEC0026D17B681B687B627B681B68B3F850301F
:101AFC009BB21A467B6A13447B627B6D1B781A017E
:101B0C007B6A134403F204433B623B6A1B889BB21F
:101B1C00C3F309039AB23B6A1A803B6A1B889BB2D7
:101B2C006FEA43436FEA53439AB23B6A1A8061E00F
:101B3C007B6D5B78012B5DD17B681B68FB627B68DE
:101B4C001B68B3F850309BB21A46FB6A1344FB6215
:101B5C007B6D1B781A01FB6A134403F20443BB62CE
:101B6C00BB6A00221A8045E07B681B68FB637B6DB7
:101B7C005B78002B26D17B681B687B637B681B68BA
:101B8C00B3F850309BB21A467B6B13447B637B6D6E
:101B9C001B781A017B6B134403F20C433B633B6BC6
:101BAC001B889BB2C3F309039AB23B6B1A803B6B45
:101BBC001B889BB26FEA43436FEA53439AB23B6B69
:101BCC001A8017E07B6D5B78012B13D17B681B6847
:101BDC00B3F850309BB21A46FB6B1344FB637B6D1E
:101BEC001B781A01FB6B134403F20C43BB63BB6BF6
:101BFC0000221A807B6D1B781946786805F0DFFD92
:101C0C0053E0B7F84A3003F48073002B46D17B685D
:101C1C001B68B3F850309BB21A467B6D1B78DB0007
:101C2C00134402335B007A681268134403F5806333
:101C3C001B88C3F30903A7F840307B6D9A69B7F88A
:101C4C0040309A4207D97B6D9A69B7F84030D21A66
:101C5C007B6D9A6102E07B6D00229A617B6D9B69C2
:101C6C00002B06D17B6D1B781946786805F0A7FD13
:101C7C001BE07B6D5A69B7F840301A447B6D5A6192
:101C8C007B6DDA69B7F840301A447B6DDA617B689A
:101C9C001B68796D184602F079FA06E0B7F84A30FD
:101CAC001A46796D786800F01BF97B681B68B3F8ED
:101CBC0044309BB21BB2002BFFF637AC0023184606
:101CCC005837BD4680BD80B588B000AFF860B960AC
:101CDC001346FB80FB8803F48043002B7ED0FB680B
:101CEC001B68B3F850309BB21A46BB681B78DB00FC
:101CFC00134402335B00FA681268134403F58063E3
:101D0C001B88C3F309037B83BB689A697B8B9A425C
:101D1C0006D3BB689A697B8BD21ABB689A6102E0C6
:101D2C00BB6800229A61BB689B69002B23D1FB68BE
:101D3C001B681A46BB681B789B0013441B889BB21C
:101D4C0023F4804323F070033B833B8B83F40053D9
:101D5C003B83FB681B681A46BB681B789B001A44C4
:101D6C003B8B43F07F4343F47F0343F4004343F046
:101D7C0080039BB21380FB8803F04003002B1FD021
:101D8C00FB681B681A46BB681B789B0013441B88B6
:101D9C009BB223F4E04323F07003FB82FB681B68C7
:101DAC001A46BB681B789B001A44FB8A43F07F439E
:101DBC0043F47F0343F4004343F0C0039BB213800E
:101DCC007B8B002B00F08780FB681868BB68596917
:101DDC00BB681A897B8B03F00DFF7CE0FB681B68EA
:101DEC00B3F850309BB21A46BB681B78DB00134427
:101DFC0006335B00FA681268134403F580631B8892
:101E0C00C3F309037B83BB689A697B8B9A4206D325
:101E1C00BB689A697B8BD21ABB689A6102E0BB687B
:101E2C0000229A61BB689B69002B23D1FB681B685D
:101E3C001A46BB681B789B0013441B889BB223F487
:101E4C00804323F07003FB83FB8B83F40053FB83F1
:101E5C00FB681B681A46BB681B789B001A44FB8BFB
:101E6C0043F07F4343F47F0343F4004343F0800388
:101E7C009BB21380FB8803F04003002B1FD1FB683F
:101E8C001B681A46BB681B789B0013441B889BB2CB
:101E9C0023F4E04323F07003BB83FB681B681A46F2
:101EAC00BB681B789B001A44BB8B43F07F4343F405
:101EBC007F0343F4004343F0C0039BB213807B8B3E
:101ECC00002B08D0FB681868BB685969BB685A8935
:101EDC007B8B03F08FFE7B8B18462037BD4680BD75
:101EEC0080B5A4B000AFF860B9601346FB80FB88E6
:101EFC0003F04003002B00F0DD81FB681B68B3F896
:101F0C0050309BB21A46BB681B78DB00134402337B
:101F1C005B00FA681268134403F580631B88C3F3F3
:101F2C000903A7F88630BB689A69B7F886309A42DD
:101F3C0007D9BB689A69B7F88630D21ABB689A6120
:101F4C0002E0BB6800229A61BB689B69002B40F0E1
:101F5C00B980BB685B78002B26D1FB681B68FB62E1
:101F6C00FB681B68B3F850309BB21A46FB6A1344EB
:101F7C00FB62BB681B781A01FB6A134403F204432F
:101F8C00BB62BB6A1B889BB2C3F309039AB2BB6AE0
:101F9C001A80BB6A1B889BB26FEA43436FEA5343B8
:101FAC009AB2BB6A1A801AE0BB685B78012B16D117
:101FBC00FB681B687B63FB681B68B3F850309BB2F3
:101FCC001A467B6B13447B63BB681B781A017B6BD3
:101FDC00134403F204433B633B6B00221A80FB68FF
:101FEC001B687B62BB685B78002B26D1FB681B6887
:101FFC00FB61FB681B68B3F850309BB21A46FB6957
:10200C001344FB61BB681B781A01FB69134403F290
:10201C000C43BB61BB691B889BB2C3F309039AB227
:10202C00BB691A80BB691B889BB26FEA43436FEA9A
:10203C0053439AB2BB691A8017E0BB685B78012BDB
:10204C0013D1FB681B68B3F850309BB21A467B6AFD
:10205C0013447B62BB681B781A017B6A134403F23E
:10206C000C433B623B6A00221A80BB681B78194602
:10207C00F86805F0A4FBFB8803F48043002B00F008
:10208C00FC82FB681B681A46BB681B789B001344D8
:10209C001B889BB223F4E04323F07003FB82FB68A4
:1020AC001B681A46BB681B789B001A44FB8A43F0DA
:1020BC007F4343F47F0343F4404343F080039BB2DC
:1020CC001380DAE2FB8803F48043002B21D0FB68F9
:1020DC001B681A46BB681B789B0013441B889BB279
:1020EC0023F4E04323F07003A7F88A30FB681B68E5
:1020FC001A46BB681B789B001A44B7F88A3043F029
:10210C007F4343F47F0343F4404343F080039BB28B
:10211C001380BB6893F82430012B40F0AE82BB686F
:10212C005A69B7F886301A44BB685A61BB68DA69D9
:10213C00B7F886301A44BB68DA61BB681A6ABB68A8
:10214C001B699A420BD3BB681B69C7F88C30BB6800
:10215C001A6AD7F88C30D21ABB681A6217E0BB68BF
:10216C001B6A002B08D1B7F88630C7F88C30BB68D7
:10217C00002283F824200AE0BB68002283F8242084
:10218C00BB681B6AC7F88C30BB6800221A62BB683C
:10219C005B78002B65D1FB681B68FB63FB681B68D5
:1021AC00B3F850309BB21A46FB6B1344FB63BB680D
:1021BC001B781A01FB6B134403F20443BB63BB6B28
:1021CC001B889BB2C3F309039AB2BB6B1A80D7F876
:1021DC008C303E2B1DD9D7F88C305B09BB64D7F8FB
:1021EC008C3003F01F03002B02D1BB6C013BBB6492
:1021FC00BB6B1B889AB2BB6C9BB29B029BB213430A
:10220C009BB26FEA43436FEA53439AB2BB6B1A809B
:10221C0044E0D7F88C30002B0AD1BB6B1B889BB2E7
:10222C006FEA43436FEA53439AB2BB6B1A8035E0B3
:10223C00D7F88C305B08BB64D7F88C3003F0010303
:10224C00002B02D0BB6C0133BB64BB6B1B889AB2F6
:10225C00BB6C9BB29B029BB213439AB2BB6B1A80B2
:10226C001CE0BB685B78012B18D1FB681B687B6496
:10227C00FB681B68B3F850309BB21A467B6C134456
:10228C007B64BB681B781A017B6C134403F2044318
:10229C003B64D7F88C309AB23B6C1A80FB68186898
:1022AC00BB685969BB681A89D7F88C309BB203F0AC
:1022BC005CFCE2E1FB681B68B3F850309BB21A4639
:1022CC00BB681B78DB00134406335B00FA681268AA
:1022DC00134403F580631B88C3F30903A7F8863006
:1022EC00BB689A69B7F886309A4207D3BB689A697B
:1022FC00B7F88630D21ABB689A6102E0BB6800223C
:10230C009A61BB689B69002B40F0C080BB685B780E
:10231C00002B26D1FB681B68FB67FB681B68B3F8B6
:10232C0050309BB21A46FB6F1344FB67BB681B789B
:10233C001A01FB6F134403F20443BB67BB6F1B888A
:10234C009BB2C3F309039AB2BB6F1A80BB6F1B8895
:10235C009BB26FEA43436FEA53439AB2BB6F1A8046
:10236C001AE0BB685B78012B16D1FB681B687B6697
:10237C00FB681B68B3F850309BB21A467B6E134453
:10238C007B66BB681B781A017B6E134403F2044313
:10239C003B663B6E00221A80FB681B687B67BB6840
:1023AC005B78002B2BD1FB681B68FB66FB681B68FA
:1023BC00B3F850309BB21A46FB6E1344FB66BB68F5
:1023CC001B781A01FB6E134403F20C43C7F88030E0
:1023DC00D7F880301B889BB2C3F309039AB2D7F8A5
:1023EC0080301A80D7F880301B889BB26FEA434349
:1023FC006FEA53439AB2D7F880301A8017E0BB6863
:10240C005B78012B13D1FB681B68B3F850309BB27F
:10241C001A467B6F13447B67BB681B781A017B6F72
:10242C00134403F20C433B673B6F00221A80BB68DA
:10243C001B781946F86805F0C2F9FB8803F4804351
:10244C00002B40F01A81FB681B681A46BB681B788E
:10245C009B0013441B889BB223F4E04323F07003CE
:10246C00A7F88830FB681B681A46BB681B789B0072
:10247C001A44B7F8883043F07F4343F47F0343F4A6
:10248C00404343F080039BB21380F6E0FB8803F4D7
:10249C008043002B21D1FB681B681A46BB681B7854
:1024AC009B0013441B889BB223F4E04323F070037E
:1024BC00A7F84E30FB681B681A46BB681B789B005C
:1024CC001A44B7F84E3043F07F4343F47F0343F490
:1024DC00404343F080039BB21380BB6893F82430D5
:1024EC00012B40F0CA80BB685A69B7F886301A4491
:1024FC00BB685A61BB68DA69B7F886301A44BB68A6
:10250C00DA61BB681A6ABB681B699A420BD3BB6859
:10251C001B69C7F88C30BB681A6AD7F88C30D21A92
:10252C00BB681A6217E0BB681B6A002B08D1B7F8AE
:10253C008630C7F88C30BB68002283F824200AE070
:10254C00BB681B6AC7F88C30BB6800221A62BB6878
:10255C00002283F82420FB681B687B65BB685B78D2
:10256C00002B65D1FB681B68FB65FB681B68B3F827
:10257C0050309BB21A46FB6D1344FB65BB681B784D
:10258C001A01FB6D134403F20C43BB65BB6D1B8836
:10259C009BB2C3F309039AB2BB6D1A80D7F88C3087
:1025AC003E2B1DD9D7F88C305B09BB66D7F88C3025
:1025BC0003F01F03002B02D1BB6E013BBB66BB6D4E
:1025CC001B889AB2BB6E9BB29B029BB213439BB20D
:1025DC006FEA43436FEA53439AB2BB6D1A8041E0F2
:1025EC00D7F88C30002B0AD1BB6D1B889BB26FEADD
:1025FC0043436FEA53439AB2BB6D1A8032E0D7F86B
:10260C008C305B08BB66D7F88C3003F00103002BD1
:10261C0002D0BB6E0133BB66BB6D1B889AB2BB6E1E
:10262C009BB29B029BB213439AB2BB6D1A8019E00A
:10263C00BB685B78012B15D1FB681B68B3F8503075
:10264C009BB21A467B6D13447B65BB681B781A01E1
:10265C007B6D134403F20C433B65D7F88C309AB274
:10266C003B6D1A80FB681868BB685969BB685A894E
:10267C00D7F88C309BB203F078FAFB681B681A46CB
:10268C00BB681B789B0013441B889BB223F4E0436C
:10269C0023F04003BB82BB8A83F01003BB82BB8A4E
:1026AC0083F02003BB82FB681B681A46BB681B784F
:1026BC009B001A44BB8A43F07F4343F47F0343F4EB
:1026CC00004343F080039BB21380002318469037DD
:1026DC00BD4680BD80B487B000AFF8607B600B4610
:1026EC007B8113463B817B8903F080039BB2002BDB
:1026FC000BD07B8903F007035A1C13469B00134431
:10270C00DB00FA6813447B6109E07A8913469B006D
:10271C001344DB0003F5B473FA6813447B613B8903
:10272C00002B07D17B6900221A737B689AB27B69F4
:10273C00DA800BE07B6901221A737B689AB27B69A1
:10274C001A817B681B0C9AB27B695A81002318464C
:10275C001C37BD4680BC704780B586B000AF786032
:10276C007B68002B01D1012372E27B681B6803F0AC
:10277C000103002B00F08780924B5B6803F00C0385
:10278C00042B0CD08F4B5B6803F00C03082B12D17D
:10279C008C4B5B6803F48033B3F5803F0BD1894BD2
:1027AC001B6803F40033002B6CD07B685B68002B38
:1027BC0068D101234CE27B685B68B3F5803F06D19E
:1027CC00804B1B687F4A43F4803313602EE07B6898
:1027DC005B68002B0CD17B4B1B687A4A23F480334B
:1027EC001360784B1B68774A23F4802313601DE039
:1027FC007B685B68B3F5A02F0CD1724B1B68714AD8
:10280C0043F4802313606F4B1B686E4A43F4803390
:10281C0013600BE06B4B1B686A4A23F48033136024
:10282C00684B1B68674A23F4802313607B685B68E2
:10283C00002B13D0FDF74AFF386108E0FDF746FF87
:10284C0002463B69D31A642B01D9032300E25D4B8A
:10285C001B6803F40033002BF0D014E0FDF736FFB7
:10286C00386108E0FDF732FF02463B69D31A642B4E
:10287C0001D90323ECE1534B1B6803F40033002B09
:10288C00F0D100E000BF7B681B6803F00203002B53
:10289C0063D04C4B5B6803F00C03002B0BD0494B03
:1028AC005B6803F00C03082B1CD1464B5B6803F4EC
:1028BC008033002B16D1434B1B6803F00203002B13
:1028CC0005D07B681B69012B01D00123C0E13D4B76
:1028DC001B6823F0F8027B685B69DB003949134302
:1028EC000B603AE07B681B69002B20D0364B012231
:1028FC001A60FDF7EBFE386108E0FDF7E7FE0246D3
:10290C003B69D31A022B01D90323A1E12D4B1B6880
:10291C0003F00203002BF0D02A4B1B6823F0F802C3
:10292C007B685B69DB00274913430B6015E0264B82
:10293C0000221A60FDF7CAFE386108E0FDF7C6FEFA
:10294C0002463B69D31A022B01D9032380E11D4BAC
:10295C001B6803F00203002BF0D17B681B6803F0AB
:10296C000803002B3AD07B689B69002B19D0174BBE
:10297C0001221A60FDF7AAFE386108E0FDF7A6FEF9
:10298C0002463B69D31A022B01D9032360E10D4B9C
:10299C005B6A03F00203002BF0D0012000F09CFADC
:1029AC001CE00A4B00221A60FDF790FE38610FE024
:1029BC00FDF78CFE02463B69D31A022B08D9032380
:1029CC0046E100BF00100240000042428004424237
:1029DC00924B5B6A03F00203002BE9D17B681B6806
:1029EC0003F00403002B00F0A6800023FB758B4B37
:1029FC00DB6903F08053002B0DD1884BDB69874AD0
:102A0C0043F08053D361854BDB6903F08053BB608B
:102A1C00BB680123FB75824B1B6803F48073002B8E
:102A2C0018D17F4B1B687E4A43F480731360FDF70B
:102A3C004DFE386108E0FDF749FE02463B69D31AAA
:102A4C00642B01D9032303E1754B1B6803F48073DA
:102A5C00002BF0D07B68DB68012B06D16F4B1B6A17
:102A6C006E4A43F0010313622DE07B68DB68002B98
:102A7C000CD16A4B1B6A694A23F001031362674B42
:102A8C001B6A664A23F0040313621CE07B68DB6854
:102A9C00052B0CD1614B1B6A604A43F00403136293
:102AAC005E4B1B6A5D4A43F0010313620BE05B4B08
:102ABC001B6A5A4A23F001031362584B1B6A574A8C
:102ACC0023F0040313627B68DB68002B15D0FDF741
:102ADC00FDFD38610AE0FDF7F9FD02463B69D31AAA
:102AEC0041F28832934201D90323B1E04B4B1B6A6C
:102AFC0003F00203002BEED014E0FDF7E7FD386184
:102B0C000AE0FDF7E3FD02463B69D31A41F2883235
:102B1C00934201D903239BE0404B1B6A03F0020351
:102B2C00002BEED1FB7D012B05D13C4BDB693B4AE5
:102B3C0023F08053D3617B68DB69002B00F0878026
:102B4C00364B5B6803F00C03082B61D07B68DB69A8
:102B5C00022B46D1334B00221A60FDF7B7FD3861CA
:102B6C0008E0FDF7B3FD02463B69D31A022B01D9ED
:102B7C0003236DE0294B1B6803F00073002BF0D18D
:102B8C007B681B6AB3F5803F08D1244B5B6823F448
:102B9C0000327B689B68214913434B601F4B5B6879
:102BAC0023F474127B68196A7B685B6A0B431B49BC
:102BBC0013434B601B4B01221A60FDF787FD3861F4
:102BCC0008E0FDF783FD02463B69D31A022B01D9BD
:102BDC0003233DE0114B1B6803F00073002BF0D076
:102BEC0035E0104B00221A60FDF770FD386108E0EB
:102BFC00FDF76CFD02463B69D31A022B01D9032366
:102C0C0026E0064B1B6803F00073002BF0D11EE08E
:102C1C007B68DB69012B07D1012319E0001002400E
:102C2C0000700040600042420B4B5B68FB60FB682D
:102C3C0003F480327B681B6A9A4206D1FB6803F46A
:102C4C0070127B685B6A9A4201D0012300E000237A
:102C5C0018461837BD4680BD0010024080B584B0C0
:102C6C0000AF786039607B68002B01D10123D0E084
:102C7C006A4B1B6803F007033A689A4210D9674BFA
:102C8C001B6823F0070265493B6813430B60634BD9
:102C9C001B6803F007033A689A4201D00123B8E09D
:102CAC007B681B6803F00203002B20D07B681B6839
:102CBC0003F00403002B05D0594B5B68584A43F4CE
:102CCC00E06353607B681B6803F00803002B05D09E
:102CDC00534B5B68524A43F460535360504B5B68F0
:102CEC0023F0F0027B689B684D4913434B607B6873
:102CFC001B6803F00103002B40D07B685B68012B41
:102D0C0007D1474B1B6803F40033002B15D101236B
:102D1C007FE07B685B68022B07D1414B1B6803F09B
:102D2C000073002B09D1012373E03D4B1B6803F0AA
:102D3C000203002B01D101236BE0394B5B6823F0BC
:102D4C0003027B685B68364913434B60FDF7BEFC9E
:102D5C00F8600AE0FDF7BAFC0246FB68D31A41F2B0
:102D6C008832934201D9032353E02D4B5B6803F067
:102D7C000C027B685B689B009A42EBD1274B1B686B
:102D8C0003F007033A689A4210D2244B1B6823F0D5
:102D9C00070222493B6813430B60204B1B6803F06E
:102DAC0007033A689A4201D0012332E07B681B6822
:102DBC0003F00403002B08D0194B5B6823F4E0628A
:102DCC007B68DB68164913434B607B681B6803F018
:102DDC000803002B09D0124B5B6823F460527B680C
:102DEC001B69DB000E4913434B6000F021F80246CF
:102DFC000B4B5B681B0903F00F030A49CB5C22FAEF
:102E0C0003F3094A1360094B1B681846FDF71CFCB9
:102E1C00002318461037BD4680BD00BF002002407D
:102E2C00001002404C7D0008080000200C0000201F
:102E3C0080B487B000AF0023FB600023BB6000238D
:102E4C007B6100237B6000233B611E4B5B68FB6056
:102E5C00FB6803F00C03042B02D0082B03D027E0F3
:102E6C00194B3B6127E0FB689B0C03F00F03174ADF
:102E7C00D35C7B60FB6803F48033002B10D0114BC8
:102E8C005B685B0C03F00103114AD35CBB607B688D
:102E9C000D4A03FB02F2BB68B2FBF3F37B6104E067
:102EAC007B680C4A02FB03F37B617B693B6102E0AC
:102EBC00054B3B6100BF3B6918461C37BD4680BCC7
:102ECC00704700BF0010024000127A005C7D0008C1
:102EDC006C7D000800093D0080B485B000AF7860BF
:102EEC000A4B1B680A4AA2FB03235B0A7A6802FBA3
:102EFC0003F3FB6000BFFB685A1EFA60002BF9D18C
:102F0C0000BF00BF1437BD4680BC704708000020CE
:102F1C00D34D621080B586B000AF786000233B6162
:102F2C000023FB607B681B6803F00103002B7DD042
:102F3C000023FB754F4BDB6903F08053002B0DD145
:102F4C004C4BDB694B4A43F08053D361494BDB69F3
:102F5C0003F08053BB60BB680123FB75464B1B68B9
:102F6C0003F48073002B18D1434B1B68424A43F483
:102F7C0080731360FDF7AAFB386108E0FDF7A6FB30
:102F8C0002463B69D31A642B01D903236DE03A4BFB
:102F9C001B6803F48073002BF0D0364B1B6A03F4D0
:102FAC004073FB60FB68002B2ED07B685B6803F4DE
:102FBC004073FA689A4227D02E4B1B6A23F4407355
:102FCC00FB602E4B01221A602C4B00221A60294AFE
:102FDC00FB681362FB6803F00103002B14D0FDF7B0
:102FEC0075FB38610AE0FDF771FB02463B69D31AA9
:102FFC0041F28832934201D9032336E01D4B1B6A00
:10300C0003F00203002BEED01A4B1B6A23F4407220
:10301C007B685B68174913430B62FB7D012B05D161
:10302C00144BDB69134A23F08053D3617B681B6814
:10303C0003F00203002B08D00E4B5B6823F44042D4
:10304C007B689B680B4913434B607B681B6803F0E0
:10305C001003002B08D0074B5B6823F480027B68BD
:10306C00DB68044913434B60002318461837BD46F0
:10307C0080BD00BF0010024000700040400442427E
:10308C0080B582B000AF78607B68002B01D1012342
:10309C0076E07B685B6A002B08D17B685B68B3F5D4
:1030AC00827F09D07B680022DA6105E07B68002210
:1030BC001A617B6800225A617B6800229A627B68E5
:1030CC0093F85130DBB2002B06D17B68002283F8D9
:1030DC0050207868FDF7FAF97B68022283F85120BA
:1030EC007B681B681A687B681B6822F040021A60B8
:1030FC007B685B6803F482727B689B6803F404430F
:10310C001A437B68DB6803F400631A437B681B6912
:10311C0003F002031A437B685B6903F001031A4353
:10312C007B689B6903F400731A437B68DB6903F0CB
:10313C0038031A437B681B6A03F0800342EA0301DD
:10314C007B689B6A03F400527B681B680A431A6015
:10315C007B689B691A0C7B681B6802F004025A603E
:10316C007B681B68DA697B681B6822F40062DA6191
:10317C007B6800225A657B68012283F8512000236A
:10318C0018460837BD4680BD80B588B000AFF860E2
:10319C00B9603B601346FB800023FB77FB6893F818
:1031AC005030012B01D102232DE1FB68012283F861
:1031BC005020FDF78BFAB861FB88FB82FB6893F813
:1031CC005130DBB2012B02D00223FB7716E1BB6836
:1031DC00002B02D0FB88002B02D10123FB770DE1E1
:1031EC00FB68032283F85120FB6800225A65FB68B8
:1031FC00BA681A63FB68FA889A86FB68FA88DA86DA
:10320C00FB6800229A63FB6800229A87FB68002205
:10321C00DA87FB6800225A64FB6800221A64FB6898
:10322C009B68B3F5004F0FD1FB681B681A68FB68ED
:10323C001B6822F040021A60FB681B681A68FB6866
:10324C001B6842F480421A60FB681B681B6803F021
:10325C004003402B07D0FB681B681A68FB681B688F
:10326C0042F040021A60FB68DB68B3F5006F4FD187
:10327C00FB685B68002B02D0FB8A012B42D1FB68F8
:10328C001B6B1A88FB681B68DA60FB681B6B9A1C4B
:10329C00FB681A63FB68DB8E9BB2013B9AB2FB683E
:1032AC00DA862FE0FB681B689B6803F00203022B95
:1032BC0012D1FB681B6B1A88FB681B68DA60FB6811
:1032CC001B6B9A1CFB681A63FB68DB8E9BB2013B81
:1032DC009AB2FB68DA8615E0FDF7F8F90246BB698D
:1032EC00D31A3A689A4203D83B68B3F1FF3F02D134
:1032FC003B68002B06D10323FB77FB68012283F884
:10330C0051207BE0FB68DB8E9BB2002BCAD150E0D6
:10331C00FB685B68002B02D0FB8A012B44D1FB6855
:10332C001A6BFB681B680C3312781A70FB681B6BEA
:10333C005A1CFB681A63FB68DB8E9BB2013B9AB28A
:10334C00FB68DA8630E0FB681B689B6803F00203BD
:10335C00022B13D1FB681A6BFB681B680C331278B9
:10336C001A70FB681B6B5A1CFB681A63FB68DB8EBC
:10337C009BB2013B9AB2FB68DA8615E0FDF7A6F921
:10338C000246BB69D31A3A689A4203D83B68B3F138
:10339C00FF3F02D13B68002B06D10323FB77FB6870
:1033AC00012283F8512029E0FB68DB8E9BB2002BB5
:1033BC00C9D1BA693968F86800F0B2F80346002B35
:1033CC0002D0FB6820225A65FB689B68002B0AD14F
:1033DC0000233B61FB681B68DB683B61FB681B6877
:1033EC009B683B613B69FB685B6D002B02D0012342
:1033FC00FB7703E0FB68012283F85120FB68002275
:10340C0083F85020FB7F18462037BD4680BD000056
:10341C0080B588B000AFF860B9603B601346FB71B3
:10342C00FDF754F90246BB6A9B1A3A681344FB61D8
:10343C00FDF74CF9B861394B1B685B011B0DFA6940
:10344C0002FB03F37B6154E03B68B3F1FF3F50D0C8
:10345C00FDF73CF90246BB69D31AFA699A4202D9C4
:10346C00FB69002B3DD1FB681B685A68FB681B6825
:10347C0022F0E0025A60FB685B68B3F5827F11D1E1
:10348C00FB689B68B3F5004F04D0FB689B68B3F5F1
:10349C00806F07D1FB681B681A68FB681B6822F0F9
:1034AC0040021A60FB689B6AB3F5005F0FD1FB68A2
:1034BC001B681A68FB681B6822F400521A60FB68D0
:1034CC001B681A68FB681B6842F400521A60FB68A0
:1034DC00012283F85120FB68002283F8502003233B
:1034EC0017E07B69002B01D10023FB617B69013B59
:1034FC007B61FB681B689A68BB681340BA689A4288
:10350C000CBF01230023DBB21A46FB799A429BD1F4
:10351C00002318462037BD4680BD00BF08000020A0
:10352C0080B586B002AFF860B9607A607B680093B2
:10353C00BB6800228021F868FFF76AFF0346002B66
:10354C0007D0FB685B6D43F02002FB685A650323D0
:10355C0000E0002318461037BD4680BD84B080B40F
:10356C0083B000AF786007F1140080E80E000023F0
:10357C0018460C37BD4680BC04B0704780B485B08B
:10358C0000AF78607B680022A3F844204FF43F43DF
:10359C00FB60FB689AB27B68A3F8402000231846B6
:1035AC001437BD4680BC704780B485B000AF7860DE
:1035BC004FF43F43FB607B68B3F840309AB2FB6832
:1035CC009BB2DB439BB213409AB27B68A3F84020BA
:1035DC00002318461437BD4680BC704780B483B0B6
:1035EC0000AF78600B46FB70002318460C37BD46C5
:1035FC0080BC704784B080B483B000AF786007F1B2
:10360C00140080E80E007B680122A3F840207B6840
:10361C000022A3F840207B680022A3F844207B689A
:10362C000022A3F85020002318460C37BD4680BC5E
:10363C0004B0704780B49DB000AF7860396000234F
:10364C0087F86F307A683B681B789B0013441B88A3
:10365C009BB223F4EC4323F07003A7F86C303B6867
:10366C00DB78032B1FD801A252F823F0893600080F
:10367C00A5360008BB36000897360008B7F86C3042
:10368C0043F40073A7F86C3012E0B7F86C3043F4D5
:10369C00C063A7F86C300BE0B7F86C3043F4806370
:1036AC00A7F86C3004E0012387F86F3000E000BF0E
:1036BC007A683B681B789B001A44B7F86C3043F06F
:1036CC007F4343F47F0343F4004343F080039BB2F6
:1036DC0013807A683B681B789B0013441B889BB251
:1036EC0023F4E04323F070039AB23B681B789BB23F
:1036FC001343A7F866307A683B681B789B001A4422
:10370C00B7F8663043F07F4343F47F0343F4004340
:10371C0043F080039BB213803B681B7B002B40F073
:10372C0078813B685B78002B00F084807B68BB6100
:10373C007B68B3F850309BB21A46BB691344BB612B
:10374C003B681B781A01BB69134403F580637B61EA
:10375C003B68DB885B089BB25B009AB27B691A8082
:10376C007A683B681B789B0013441B887B827B8A9E
:10377C0003F04003002B1BD07A683B681B789B003E
:10378C0013441B889BB223F4E04323F070033B8269
:10379C007A683B681B789B001A443B8A43F07F4352
:1037AC0043F47F0343F4004343F0C0039BB2138004
:1037BC003B68DB78012B20D07A683B681B789B0038
:1037CC0013441B889BB223F4E04323F04003BB81DA
:1037DC00BB8983F02003BB817A683B681B789B0014
:1037EC001A44BB8943F07F4343F47F0343F4004303
:1037FC0043F080039BB21380D5E27A683B681B7858
:10380C009B0013441B889BB223F4E04323F040033A
:10381C00FB817A683B681B789B001A44FB8943F058
:10382C007F4343F47F0343F4004343F080039BB294
:10383C001380B8E27B683B637B68B3F850309BB273
:10384C001A463B6B13443B633B681B781A013B6B7A
:10385C00134403F58163FB623B68DB885B089BB216
:10386C005B009AB2FB6A1A807B68BB627B68B3F818
:10387C0050309BB21A46BB6A1344BB623B681B7840
:10388C001A01BB6A134403F20C437B627B6A1B88EC
:10389C009BB2C3F309039AB27B6A1A803B681B691B
:1038AC003E2B1DD93B681B695B09BB663B681B69DA
:1038BC0003F01F03002B02D1BB6E013BBB667B6A7E
:1038CC001B889AB2BB6E9BB29B029BB213439BB2FA
:1038DC006FEA43436FEA53439AB27B6A1A8026E03D
:1038EC003B681B69002B0AD17B6A1B889BB26FEA71
:1038FC0043436FEA53439AB27B6A1A8017E03B68E2
:10390C001B695B08BB663B681B6903F00103002B5A
:10391C0002D0BB6E0133BB667B6A1B889AB2BB6E4E
:10392C009BB29B029BB213439AB27B6A1A807A6851
:10393C003B681B789B0013441B887B847B8C03F4B3
:10394C008043002B1BD07A683B681B789B00134488
:10395C001B889BB223F4E04323F070033B847A680A
:10396C003B681B789B001A443B8C43F07F4343F429
:10397C007F0343F4404343F080039BB213803B68C6
:10398C001B78002B24D17A683B681B789B0013446E
:10399C001B889BB223F4804323F07003BB83BB8B47
:1039AC0083F48053BB83BB8B83F40053BB837A6853
:1039BC003B681B789B001A44BB8B43F07F4343F45A
:1039CC007F0343F4004343F080039BB21380EAE18E
:1039DC007A683B681B789B0013441B889BB223F4CA
:1039EC00804323F07003FB83FB8B83F40053FB8336
:1039FC007A683B681B789B001A44FB8B43F07F432F
:103A0C0043F47F0343F4004343F080039BB21380E1
:103A1C00C9E13B68DB78022B1ED17A683B681B78C6
:103A2C009B0013441B889BB223F4E04323F07003E8
:103A3C00A7F862307A683B681B789B001A44B7F889
:103A4C00623043F07F4343F47F0343F4014343F07C
:103A5C0080039BB213801DE07A683B681B789B0047
:103A6C0013441B889BB223F4E24323F07003A7F8A2
:103A7C0064307A683B681B789B001A44B7F8643052
:103A8C0043F07F4343F47F0343F4004343F080034C
:103A9C009BB213807B68FB657B68B3F850309BB29C
:103AAC001A46FB6D1344FB653B681B781A01FB6DD2
:103ABC00134403F58063BB653B681B895B089BB2B1
:103ACC005B009AB2BB6D1A807B687B657B68B3F830
:103ADC0050309BB21A467B6D13447B653B681B7858
:103AEC001A017B6D134403F581633B653B685B896D
:103AFC005B089BB25B009AB23B6D1A803B685B78AB
:103B0C00002B40F093807A683B681B789B00134431
:103B1C001B88A7F84030B7F8403003F48043002BE3
:103B2C001BD07A683B681B789B0013441B889BB2A4
:103B3C0023F4E04323F07003FB877A683B681B781F
:103B4C009B001A44FB8F43F07F4343F47F0343F401
:103B5C00404343F080039BB213807A683B681B7828
:103B6C009B0013441B88BB87BB8F03F04003002BC7
:103B7C001BD07A683B681B789B0013441B889BB254
:103B8C0023F4E04323F070037B877A683B681B784F
:103B9C009B001A447B8F43F07F4343F47F0343F431
:103BAC00004343F0C0039BB213807A683B681B78D8
:103BBC009B0013441B889BB223F4804323F07003B7
:103BCC003B873B8F83F480533B873B8F83F40053BD
:103BDC003B877A683B681B789B001A443B8F43F009
:103BEC007F4343F47F0343F4004343F080039BB2D1
:103BFC0013807A683B681B789B0013441B889BB22C
:103C0C0023F4E04323F04003FB867A683B681B787F
:103C1C009B001A44FB8E43F07F4343F47F0343F431
:103C2C00004343F080039BB21380BCE07A683B688E
:103C3C001B789B0013441B88A7F84E30B7F84E3006
:103C4C0003F48043002B1DD07A683B681B789B00E3
:103C5C0013441B889BB223F4E04323F07003A7F8B2
:103C6C004C307A683B681B789B001A44B7F84C3090
:103C7C0043F07F4343F47F0343F4404343F080031A
:103C8C009BB213807A683B681B789B0013441B889B
:103C9C00A7F84A30B7F84A3003F04003002B1DD088
:103CAC007A683B681B789B0013441B889BB223F4F7
:103CBC00E04323F07003A7F848307A683B681B7820
:103CCC009B001A44B7F8483043F07F4343F47F031A
:103CDC0043F4004343F0C0039BB213803B68DB7892
:103CEC00012B24D07A683B681B789B0013441B88FB
:103CFC009BB223F4E04323F04003A7F84430B7F819
:103D0C00443083F02003A7F844307A683B681B7872
:103D1C009B001A44B7F8443043F07F4343F47F03CD
:103D2C0043F4004343F080039BB213801DE07A6898
:103D3C003B681B789B0013441B889BB223F4E04325
:103D4C0023F04003A7F846307A683B681B789B0049
:103D5C001A44B7F8463043F07F4343F47F0343F4EF
:103D6C00004343F080039BB213807A683B681B7856
:103D7C009B0013441B889BB223F4804323F07003F5
:103D8C00A7F842307A683B681B789B001A44B7F856
:103D9C00423043F07F4343F47F0343F4004343F04A
:103DAC0080039BB2138097F86F3018467437BD466A
:103DBC0080BC704780B48DB000AF786039603B68D0
:103DCC001B7B002B40F08E803B685B78002B44D033
:103DDC007A683B681B789B0013441B88BB81BB89AA
:103DEC0003F04003002B1BD07A683B681B789B00C8
:103DFC0013441B889BB223F4E04323F070037B81B4
:103E0C007A683B681B789B001A447B8943F07F439C
:103E1C0043F47F0343F4004343F0C0039BB213808D
:103E2C007A683B681B789B0013441B889BB223F475
:103E3C00E04323F040033B817A683B681B789B008E
:103E4C001A443B8943F07F4343F47F0343F400431C
:103E5C0043F080039BB2138092E17A683B681B7835
:103E6C009B0013441B887B827B8A03F48043002BCA
:103E7C001BD07A683B681B789B0013441B889BB251
:103E8C0023F4E04323F070033B827A683B681B7891
:103E9C009B001A443B8A43F07F4343F47F0343F473
:103EAC00404343F080039BB213807A683B681B78D5
:103EBC009B0013441B889BB223F4804323F07003B4
:103ECC00FB817A683B681B789B001A44FB8943F0A2
:103EDC007F4343F47F0343F4004343F080039BB2DE
:103EEC0013804DE13B685B78002B40F0A5807A682D
:103EFC003B681B789B0013441B883B843B8C03F46E
:103F0C008043002B1BD07A683B681B789B001344C2
:103F1C001B889BB223F4E04323F07003FB837A6885
:103F2C003B681B789B001A44FB8B43F07F4343F4A4
:103F3C007F0343F4404343F080039BB213807A68C1
:103F4C003B681B789B0013441B88BB83BB8B03F023
:103F5C004003002B1BD07A683B681B789B001344F2
:103F6C001B889BB223F4E04323F070037B837A68B5
:103F7C003B681B789B001A447B8B43F07F4343F4D4
:103F8C007F0343F4004343F0C0039BB213807A6871
:103F9C003B681B789B0013441B889BB223F4E043C3
:103FAC0023F070033B837A683B681B789B001A44B0
:103FBC003B8B43F07F4343F47F0343F4004343F0D4
:103FCC00C0039BB213807A683B681B789B00134438
:103FDC001B889BB223F4804323F07003FB827A6826
:103FEC003B681B789B001A44FB8A43F07F4343F4E5
:103FFC007F0343F4004343F080039BB213807A6841
:10400C003B681B789B0013441B889BB223F4E04352
:10401C0023F04003BB827A683B681B789B001A44F0
:10402C00BB8A43F07F4343F47F0343F4004343F0E4
:10403C0080039BB21380A3E07A683B681B789B00DB
:10404C0013441B88FB85FB8D03F48043002B1BD092
:10405C007A683B681B789B0013441B889BB223F443
:10406C00E04323F07003BB857A683B681B789B00A8
:10407C001A44BB8D43F07F4343F47F0343F4404326
:10408C0043F080039BB213807A683B681B789B00DB
:10409C0013441B887B857B8D03F04003002B1BD0C6
:1040AC007A683B681B789B0013441B889BB223F4F3
:1040BC00E04323F070033B857A683B681B789B00D8
:1040CC001A443B8D43F07F4343F47F0343F4004396
:1040DC0043F0C0039BB213807A683B681B789B004B
:1040EC0013441B889BB223F4E04323F07003FB843E
:1040FC007A683B681B789B001A44FB8C43F07F4327
:10410C0043F47F0343F4404343F080039BB213809A
:10411C007A683B681B789B0013441B889BB223F482
:10412C00E04323F04003BB847A683B681B789B0018
:10413C001A44BB8C43F07F4343F47F0343F40043A6
:10414C0043F080039BB213807A683B681B789B001A
:10415C0013441B889BB223F4804323F070037B84AD
:10416C007A683B681B789B001A447B8C43F07F4336
:10417C0043F47F0343F4004343F080039BB213806A
:10418C00002318463437BD4680BC704780B5C2B09A
:10419C0000AF07F58473A3F58273186007F5847379
:1041AC00A3F58473196007F58473A3F584731B68F6
:1041BC005B78012B40F0B78607F58473A3F5847305
:1041CC001B689A6907F58473A3F584731B681B69D4
:1041DC009A4208D907F58473A3F584731B681B698D
:1041EC00C7F8043107E007F58473A3F584731B68E3
:1041FC009B69C7F8043107F58473A3F584731B68B6
:10420C001B7B002B3AD107F58473A3F584731B68D1
:10421C00596907F58473A3F584731B68DA88D7F89A
:10422C0004319BB207F58470A0F58270006801F030
:10423C009CFC07F58473A3F582731B683B6107F53F
:10424C008473A3F582731B68B3F850309BB21A4683
:10425C003B6913443B6107F58473A3F584731B68B6
:10426C001B781A013B69134403F20443FB60D7F833
:10427C0004319AB2FB681A8000F01FBE07F58473F4
:10428C00A3F584731B68DB78022B40F0628407F57E
:10429C008473A3F584731B681A6A07F58473A3F5FA
:1042AC0084731B681B699A4240F2DF8307F58473A1
:1042BC00A3F582731A6807F58473A3F584731B68DE
:1042CC001B789B0013441B889BB223F4E04323F020
:1042DC007003A7F8563007F58473A3F582731A6838
:1042EC0007F58473A3F584731B681B789B001A4431
:1042FC00B7F8563043F07F4343F47F0343F4014354
:10430C0043F080039BB2138007F58473A3F5847389
:10431C001B681A6AD7F80431D21A07F58473A3F50F
:10432C0084731B681A6207F58473A3F582731A6889
:10433C0007F58473A3F584731B681B789B001344E7
:10434C001B889BB203F04003002B00F0C78107F5DC
:10435C008473A3F582731B683B6307F58473A3F521
:10436C0084731B685B78002B77D107F58473A3F5F6
:10437C0082731B68BB6207F58473A3F582731B6899
:10438C00B3F850309BB21A46BB6A1344BB6207F5B4
:10439C008473A3F584731B681B781A01BB6A1344DE
:1043AC0003F20C437B627B6A1B889BB2C3F3090349
:1043BC009AB27B6A1A80D7F804313E2B21D9D7F8F0
:1043CC0004315B09C7F80031D7F8043103F01F033F
:1043DC00002B04D1D7F80031013BC7F800317B6AC0
:1043EC001B889AB2D7F800319BB29B029BB2134345
:1043FC009BB26FEA43436FEA53439AB27B6A1A80CB
:10440C0050E0D7F80431002B0AD17B6A1B889BB291
:10441C006FEA43436FEA53439AB27B6A1A8041E0D6
:10442C00D7F804315B08C7F80031D7F8043103F032
:10443C000103002B04D0D7F800310133C7F8003149
:10444C007B6A1B889AB2D7F800319BB29B029BB255
:10445C0013439AB27B6A1A8024E007F58473A3F5A0
:10446C0084731B685B78012B1CD107F58473A3F54F
:10447C0082731B68B3F850309BB21A463B6B1344E3
:10448C003B6307F58473A3F584731B681B781A01CF
:10449C003B6B134403F20C43FB62D7F804319AB222
:1044AC00FB6A1A8007F58473A3F584731B685B8918
:1044BC00A7F8763007F58473A3F584731B685969E4
:1044CC00D7F804319BB2B7F8762007F58470A0F5C5
:1044DC008270006801F049FB07F58473A3F58473BF
:1044EC001B685A69D7F804311A4407F58473A3F58D
:1044FC0084731B685A6107F58473A3F584731B6876
:10450C001A6A07F58473A3F584731B681B699A42B6
:10451C000FD907F58473A3F584731B681A6AD7F84F
:10452C000431D21A07F58473A3F584731B681A62DD
:10453C000EE007F58473A3F584731B681B6AC7F838
:10454C00043107F58473A3F584731B6800221A6287
:10455C0007F58473A3F584731B685B78002B77D104
:10456C0007F58473A3F582731B68BB6107F584732D
:10457C00A3F582731B68B3F850309BB21A46BB6923
:10458C001344BB6107F58473A3F584731B681B7814
:10459C001A01BB69134403F204437B617B691B88DA
:1045AC009BB2C3F309039AB27B691A80D7F8043122
:1045BC003E2B21D9D7F804315B09C7F8FC30D7F86A
:1045CC00043103F01F03002B04D1D7F8FC30013B5E
:1045DC00C7F8FC307B691B889AB2D7F8FC309BB2C9
:1045EC009B029BB213439BB26FEA43436FEA534364
:1045FC009AB27B691A8056E0D7F80431002B0AD1A5
:10460C007B691B889BB26FEA43436FEA53439AB2B0
:10461C007B691A8047E0D7F804315B08C7F8FC3097
:10462C00D7F8043103F00103002B04D0D7F8FC3089
:10463C000133C7F8FC307B691B889AB2D7F8FC3081
:10464C009BB29B029BB213439AB27B691A802AE0FD
:10465C0007F58473A3F584731B685B78012B22D157
:10466C0007F58473A3F582731B683B6207F58473AB
:10467C00A3F582731B68B3F850309BB21A463B6AA1
:10468C0013443B6207F58473A3F584731B681B7892
:10469C001A013B6A134403F20443FB61D7F804315B
:1046AC009AB2FB691A8007F58473A3F584731B68AF
:1046BC001B89A7F8763007F58473A3F584731B6800
:1046CC005969D7F804319BB2B7F8762007F5847096
:1046DC00A0F58270006801F048FAEEE307F58473E8
:1046EC00A3F584731B685B78002B77D107F5847373
:1046FC00A3F582731B68BB6407F58473A3F58273FF
:10470C001B68B3F850309BB21A46BB6C1344BB64A5
:10471C0007F58473A3F584731B681B781A01BB6CB3
:10472C00134403F204437B647B6C1B889BB2C3F37E
:10473C0009039AB27B6C1A80D7F804313E2B21D92D
:10474C00D7F804315B09C7F8F830D7F8043103F017
:10475C001F03002B04D1D7F8F830013BC7F8F83011
:10476C007B6C1B889AB2D7F8F8309BB29B029BB239
:10477C0013439BB26FEA43436FEA53439AB27B6C89
:10478C001A8056E0D7F80431002B0AD17B6C1B88B9
:10479C009BB26FEA43436FEA53439AB27B6C1A8025
:1047AC0047E0D7F804315B08C7F8F830D7F8043184
:1047BC0003F00103002B04D0D7F8F8300133C7F80D
:1047CC00F8307B6C1B889AB2D7F8F8309BB29B02FE
:1047DC009BB213439AB27B6C1A802AE007F5847360
:1047EC00A3F584731B685B78012B22D107F58473C6
:1047FC00A3F582731B683B6507F58473A3F582737D
:10480C001B68B3F850309BB21A463B6D13443B65A2
:10481C0007F58473A3F584731B681B781A013B6D31
:10482C00134403F20443FB64D7F804319AB2FB6CD3
:10483C001A8007F58473A3F584731B681B89A7F88A
:10484C00763007F58473A3F584731B685969D7F820
:10485C0004319BB2B7F8762007F58470A0F582700E
:10486C00006801F082F907F58473A3F584731B6863
:10487C005A69D7F804311A4407F58473A3F5847385
:10488C001B685A6107F58473A3F584731B681A6A55
:10489C0007F58473A3F584731B681B699A420FD9BF
:1048AC0007F58473A3F584731B681A6AD7F804316F
:1048BC00D21A07F58473A3F584731B681A620EE091
:1048CC0007F58473A3F584731B681B6AC7F804315E
:1048DC0007F58473A3F584731B6800221A6207F52D
:1048EC008473A3F582731B683B6407F58473A3F58B
:1048FC0084731B685B78002B77D107F58473A3F561
:10490C0082731B68BB6307F58473A3F582731B6802
:10491C00B3F850309BB21A46BB6B1344BB6307F51C
:10492C008473A3F584731B681B781A01BB6B134447
:10493C0003F20C437B637B6B1B889BB2C3F30903B1
:10494C009AB27B6B1A80D7F804313E2B21D9D7F859
:10495C0004315B09C7F8F430D7F8043103F01F03B6
:10496C00002B04D1D7F8F430013BC7F8F4307B6B43
:10497C001B889AB2D7F8F4309BB29B029BB21343BC
:10498C009BB26FEA43436FEA53439AB27B6B1A8034
:10499C0050E0D7F80431002B0AD17B6B1B889BB2FB
:1049AC006FEA43436FEA53439AB27B6B1A8041E040
:1049BC00D7F804315B08C7F8F430D7F8043103F0AA
:1049CC000103002B04D0D7F8F4300133C7F8F430CE
:1049DC007B6B1B889AB2D7F8F4309BB29B029BB2CC
:1049EC0013439AB27B6B1A8024E007F58473A3F50A
:1049FC0084731B685B78012B1CD107F58473A3F5BA
:104A0C0082731B68B3F850309BB21A463B6C13444C
:104A1C003B6407F58473A3F584731B681B781A0138
:104A2C003B6C134403F20C43FB63D7F804319AB28A
:104A3C00FB6B1A8007F58473A3F584731B685B8981
:104A4C00A7F8763007F58473A3F584731B6859694E
:104A5C00D7F804319BB2B7F8762007F58470A0F52F
:104A6C008270006801F081F827E207F58473A3F5E2
:104A7C0084731B681B6AC7F8043107F58473A3F5AC
:104A8C0082731A6807F58473A3F584731B681B780B
:104A9C009B0013441B889BB223F4E24323F0700366
:104AAC00A7F8623007F58473A3F582731A6807F5CB
:104ABC008473A3F584731B681B789B001A44B7F8A6
:104ACC00623043F07F4343F47F0343F4004343F0ED
:104ADC0080039BB2138007F58473A3F582731B6864
:104AEC00FB6507F58473A3F582731B68B3F850302C
:104AFC009BB21A46FB6D1344FB6507F58473A3F553
:104B0C0084731B681B781A01FB6D134403F2044376
:104B1C00BB65D7F804319AB2BB6D1A8007F5847364
:104B2C00A3F584731B681B89A7F8763007F584738B
:104B3C00A3F584731B685969D7F804319BB2B7F895
:104B4C00762007F58470A0F58270006801F00DF8EE
:104B5C00B3E107F58473A3F584731B681A6AD7F85D
:104B6C000431D21A07F58473A3F584731B681A6297
:104B7C0007F58473A3F582731A6807F58473A3F59C
:104B8C0084731B681B789B0013441B889BB203F037
:104B9C004003002B00F0C68007F58473A3F58273E5
:104BAC001B683B6707F58473A3F584731B685B78FC
:104BBC00002B77D107F58473A3F582731B68BB6652
:104BCC0007F58473A3F582731B68B3F850309BB25E
:104BDC001A46BB6E1344BB6607F58473A3F5847346
:104BEC001B681B781A01BB6E134403F20C437B66E3
:104BFC007B6E1B889BB2C3F309039AB27B6E1A803F
:104C0C00D7F804313E2B21D9D7F804315B09C7F80A
:104C1C00F030D7F8043103F01F03002B04D1D7F880
:104C2C00F030013BC7F8F0307B6E1B889AB2D7F896
:104C3C00F0309BB29B029BB213439BB26FEA43438F
:104C4C006FEA53439AB27B6E1A8050E0D7F8043166
:104C5C00002B0AD17B6E1B889BB26FEA43436FEA31
:104C6C0053439AB27B6E1A8041E0D7F804315B084B
:104C7C00C7F8F030D7F8043103F00103002B04D04F
:104C8C00D7F8F0300133C7F8F0307B6E1B889AB23E
:104C9C00D7F8F0309BB29B029BB213439AB27B6E57
:104CAC001A8024E007F58473A3F584731B685B7882
:104CBC00012B1CD107F58473A3F582731B68B3F821
:104CCC0050309BB21A463B6F13443B6707F5847315
:104CDC00A3F584731B681B781A013B6F134403F212
:104CEC000C43FB66D7F804319AB2FB6E1A8007F5B9
:104CFC008473A3F584731B685B89A7F8763007F57A
:104D0C008473A3F584731B685969D7F804319BB27B
:104D1C00B7F8762007F58470A0F58270006800F073
:104D2C0024FFCAE007F58473A3F584731B685B78D2
:104D3C00002B77D107F58473A3F582731B68FB678F
:104D4C0007F58473A3F582731B68B3F850309BB2DC
:104D5C001A46FB6F1344FB6707F58473A3F5847342
:104D6C001B681B781A01FB6F134403F20443BB67E7
:104D7C00BB6F1B889BB2C3F309039AB2BB6F1A803B
:104D8C00D7F804313E2B21D9D7F804315B09C7F889
:104D9C00EC30D7F8043103F01F03002B04D1D7F803
:104DAC00EC30013BC7F8EC30BB6F1B889AB2D7F8DC
:104DBC00EC309BB29B029BB213439BB26FEA434312
:104DCC006FEA53439AB2BB6F1A805CE0D7F8043198
:104DDC00002B0AD1BB6F1B889BB26FEA43436FEA6F
:104DEC0053439AB2BB6F1A804DE0D7F804315B087D
:104DFC00C7F8EC30D7F8043103F00103002B04D0D2
:104E0C00D7F8EC300133C7F8EC30BB6F1B889AB283
:104E1C00D7F8EC309BB29B029BB213439AB2BB6F98
:104E2C001A8030E007F58473A3F584731B685B78F4
:104E3C00012B28D107F58473A3F582731B68C7F87F
:104E4C00843007F58473A3F582731B68B3F8503074
:104E5C009BB21A46D7F884301344C7F8843007F550
:104E6C008473A3F584731B681B781A01D7F88430FC
:104E7C00134403F20443C7F88030D7F804319AB2D4
:104E8C00D7F880301A8007F58473A3F584731B68F8
:104E9C001B89A7F8763007F58473A3F584731B6818
:104EAC005969D7F804319BB2B7F8762007F58470AE
:104EBC00A0F58270006800F058FE07F58473A3F526
:104ECC0082731A6807F58473A3F584731B681B78C7
:104EDC009B0013441B889BB223F4E04323F0400354
:104EEC007B817B8983F010037B817B8983F020039A
:104EFC007B8107F58473A3F582731A6807F58473B5
:104F0C00A3F584731B681B789B001A447B8943F0C0
:104F1C007F4343F47F0343F4004343F080039BB28D
:104F2C00138000F0DEBC07F58473A3F584731B6853
:104F3C001B7B002B40F0BB8007F58473A3F58473B7
:104F4C001B689A6907F58473A3F584731B681B6946
:104F5C009A4217D907F58473A3F584731B681B69F0
:104F6C00C7F8043107F58473A3F584731B689A6939
:104F7C00D7F80431D21A07F58473A3F584731B6830
:104F8C009A610EE007F58473A3F584731B689B6923
:104F9C00C7F8043107F58473A3F584731B680022EA
:104FAC009A6107F58473A3F582731B68C7F8903078
:104FBC0007F58473A3F582731B68B3F850309BB26A
:104FCC001A46D7F890301344C7F8903007F584731D
:104FDC00A3F584731B681B781A01D7F8903013441F
:104FEC0003F20C43C7F88C30D7F88C301B889BB27B
:104FFC00C3F309039AB2D7F88C301A80D7F804316E
:10500C003E2B24D9D7F804315B09C7F8E830D7F820
:10501C00043103F01F03002B04D1D7F8E830013B17
:10502C00C7F8E830D7F88C301B889AB2D7F8E8303C
:10503C009BB29B029BB213439BB26FEA43436FEA52
:10504C0053439AB2D7F88C301A8000F010BCD7F8C2
:10505C000431002B0CD1D7F88C301B889BB26FEA33
:10506C0043436FEA53439AB2D7F88C301A80FEE36D
:10507C00D7F804315B08C7F8E830D7F8043103F0EF
:10508C000103002B04D0D7F8E8300133C7F8E8301F
:10509C00D7F88C301B889AB2D7F8E8309BB29B02B9
:1050AC009BB213439AB2D7F88C301A80DFE307F522
:1050BC008473A3F584731B68DB78022B40F0188291
:1050CC0007F58473A3F584731B685B78002B40F0A1
:1050DC009D8007F58473A3F582731B68C7F8AC3009
:1050EC0007F58473A3F582731B68B3F850309BB239
:1050FC001A46D7F8AC301344C7F8AC3007F58473B4
:10510C00A3F584731B681B781A01D7F8AC301344D1
:10511C0003F20443C7F8A830D7F8A8301B889BB219
:10512C00C3F309039AB2D7F8A8301A8007F5847331
:10513C00A3F584731B681B693E2B2BD907F584736D
:10514C00A3F584731B681B695B09C7F8E43007F58A
:10515C008473A3F584731B681B6903F01F03002B76
:10516C0004D1D7F8E430013BC7F8E430D7F8A830C5
:10517C001B889AB2D7F8E4309BB29B029BB21343C4
:10518C009BB26FEA43436FEA53439AB2D7F8A83005
:10519C001A8070E007F58473A3F584731B681B6990
:1051AC00002B0CD1D7F8A8301B889BB26FEA434375
:1051BC006FEA53439AB2D7F8A8301A805BE007F530
:1051CC008473A3F584731B681B695B08C7F8E43010
:1051DC0007F58473A3F584731B681B6903F0010343
:1051EC00002B04D0D7F8E4300133C7F8E430D7F8FB
:1051FC00A8301B889AB2D7F8E4309BB29B029BB2C2
:10520C0013439AB2D7F8A8301A8034E007F58473A8
:10521C00A3F584731B685B78012B2CD107F5847381
:10522C00A3F582731B68C7F8B43007F58473A3F534
:10523C0082731B68B3F850309BB21A46D7F8B4305F
:10524C001344C7F8B43007F58473A3F584731B6853
:10525C001B781A01D7F8B430134403F20443C7F88F
:10526C00B03007F58473A3F584731B681B699AB27D
:10527C00D7F8B0301A8007F58473A3F582731B68D6
:10528C00C7F8A43007F58473A3F584731B685B78A7
:10529C00002B40F09D8007F58473A3F582731B6887
:1052AC00C7F89C3007F58473A3F582731B68B3F8B9
:1052BC0050309BB21A46D7F89C301344C7F89C3038
:1052CC0007F58473A3F584731B681B781A01D7F850
:1052DC009C30134403F20C43C7F89830D7F898303D
:1052EC001B889BB2C3F309039AB2D7F898301A8083
:1052FC0007F58473A3F584731B681B693E2B2BD9AC
:10530C0007F58473A3F584731B681B695B09C7F8E5
:10531C00E03007F58473A3F584731B681B6903F0F5
:10532C001F03002B04D1D7F8E030013BC7F8E03065
:10533C00D7F898301B889AB2D7F8E0309BB29B0212
:10534C009BB213439BB26FEA43436FEA53439AB247
:10535C00D7F898301A8069E007F58473A3F5847345
:10536C001B681B69002B0CD1D7F898301B889BB29B
:10537C006FEA43436FEA53439AB2D7F898301A80D6
:10538C0054E007F58473A3F584731B681B695B08F1
:10539C00C7F8E03007F58473A3F584731B681B69A9
:1053AC0003F00103002B04D0D7F8E0300133C7F829
:1053BC00E030D7F898301B889AB2D7F8E0309BB21F
:1053CC009B029BB213439AB2D7F898301A802DE007
:1053DC0007F58473A3F584731B685B78012B25D1C7
:1053EC0007F58473A3F582731B68B3F850309BB236
:1053FC001A46D7F8A4301344C7F8A43007F58473C1
:10540C00A3F584731B681B781A01D7F8A4301344D6
:10541C0003F20C43C7F8A03007F58473A3F584732B
:10542C001B681B699AB2D7F8A0301A8007F58473F1
:10543C00A3F584731B68DB69002B00F0188207F559
:10544C008473A3F582731A6807F58473A3F58473C8
:10545C001B681B789B0013441B88A7F89630B7F881
:10546C00963003F48043002B05D0B7F8963003F048
:10547C004003002B0DD1B7F8963003F48043002B7A
:10548C0040F0F581B7F8963003F04003002B40F064
:10549C00EE8107F58473A3F582731A6807F584739C
:1054AC00A3F584731B681B789B0013441B889BB269
:1054BC0023F4E04323F07003A7F8943007F58473CA
:1054CC00A3F582731A6807F58473A3F584731B68BC
:1054DC001B789B001A44B7F8943043F07F4343F495
:1054EC007F0343F4004343F0C0039BB21380BEE13F
:1054FC0007F58473A3F584731B68DB78012B40F0EC
:10550C00B48107F58473A3F584731B689A6907F556
:10551C008473A3F584731B681B699A4217D907F52A
:10552C008473A3F584731B681B69C7F8043107F5F2
:10553C008473A3F584731B689A69D7F80431D21A63
:10554C0007F58473A3F584731B689A610EE007F565
:10555C008473A3F584731B689B69C7F8043107F542
:10556C008473A3F584731B6800229A6107F5847316
:10557C00A3F584731B685B78002B40F0858007F5DE
:10558C008473A3F582731B68C7F8CC3007F584735A
:10559C00A3F582731B68B3F850309BB21A46D7F848
:1055AC00CC301344C7F8CC3007F58473A3F584735F
:1055BC001B681B781A01D7F8CC30134403F2044350
:1055CC00C7F8C830D7F8C8301B889BB2C3F309039F
:1055DC009AB2D7F8C8301A80D7F804313E2B23D9A9
:1055EC00D7F804315B09C7F8DC30D7F8043103F085
:1055FC001F03002B04D1D7F8DC30013BC7F8DC309B
:10560C00D7F8C8301B889AB2D7F8DC309BB29B0213
:10561C009BB213439BB26FEA43436FEA53439AB274
:10562C00D7F8C8301A8060E0D7F80431002B0CD1C1
:10563C00D7F8C8301B889BB26FEA43436FEA5343D9
:10564C009AB2D7F8C8301A804FE0D7F804315B080B
:10565C00C7F8DC30D7F8043103F00103002B04D079
:10566C00D7F8DC300133C7F8DC30D7F8C8301B88EA
:10567C009AB2D7F8DC309BB29B029BB213439AB21E
:10568C00D7F8C8301A8030E007F58473A3F584731B
:10569C001B685B78012B28D107F58473A3F5827303
:1056AC001B68C7F8D43007F58473A3F582731B68A5
:1056BC00B3F850309BB21A46D7F8D4301344C7F81D
:1056CC00D43007F58473A3F584731B681B781A0117
:1056DC00D7F8D430134403F20443C7F8D030D7F8CA
:1056EC0004319AB2D7F8D0301A8007F58473A3F539
:1056FC0082731B68C7F8C43007F58473A3F58473F1
:10570C001B685B78002B40F0858007F58473A3F54C
:10571C0082731B68C7F8BC3007F58473A3F58273DA
:10572C001B68B3F850309BB21A46D7F8BC30134400
:10573C00C7F8BC3007F58473A3F584731B681B781A
:10574C001A01D7F8BC30134403F20C43C7F8B83035
:10575C00D7F8B8301B889BB2C3F309039AB2D7F8B9
:10576C00B8301A80D7F804313E2B23D9D7F804313E
:10577C005B09C7F8D830D7F8043103F01F03002BAE
:10578C0004D1D7F8D830013BC7F8D830D7F8B830A7
:10579C001B889AB2D7F8D8309BB29B029BB21343AA
:1057AC009BB26FEA43436FEA53439AB2D7F8B830CF
:1057BC001A805CE0D7F80431002B0CD1D7F8B83044
:1057CC001B889BB26FEA43436FEA53439AB2D7F8F4
:1057DC00B8301A804BE0D7F804315B08C7F8D830E2
:1057EC00D7F8043103F00103002B04D0D7F8D830DC
:1057FC000133C7F8D830D7F8B8301B889AB2D7F82D
:10580C00D8309BB29B029BB213439AB2D7F8B830F4
:10581C001A802CE007F58473A3F584731B685B78FE
:10582C00012B24D107F58473A3F582731B68B3F89D
:10583C0050309BB21A46D7F8C4301344C7F8C43062
:10584C0007F58473A3F584731B681B781A01D7F8CA
:10585C00C430134403F20C43C7F8C030D7F80431FA
:10586C009AB2D7F8C0301A8001E001233AE007F56C
:10587C008473A3F582731A6807F58473A3F5847394
:10588C001B681B789B0013441B889BB223F480433A
:10589C0023F07003A7F88A30B7F88A3083F480536A
:1058AC00A7F88A30B7F88A3083F40053A7F88A3007
:1058BC0007F58473A3F582731A6807F58473A3F54F
:1058CC0084731B681B789B001A44B7F88A3043F02A
:1058DC007F4343F47F0343F4004343F080039BB2C4
:1058EC0013800023184607F58477BD4680BD80B42D
:1058FC0085B000AF786039603B685B78002B20D0B6
:10590C007A683B681B789B0013441B889BB223F47A
:10591C00E04323F04003BB81BB8983F01003BB81C0
:10592C007A683B681B789B001A44BB8943F07F4321
:10593C0043F47F0343F4004343F080039BB2138092
:10594C001FE07A683B681B789B0013441B889BB252
:10595C0023F4804323F07003FB81FB8983F4805391
:10596C00FB817A683B681B789B001A44FB8943F0E7
:10597C007F4343F47F0343F4004343F080039BB223
:10598C001380002318461437BD4680BC704780B482
:10599C0087B000AF786039603B681B7B002B40F010
:1059AC009D803B685B78002B4CD07A683B681B78F9
:1059BC009B0013441B883B823B8A03F04003002B63
:1059CC001BD07A683B681B789B0013441B889BB2E6
:1059DC0023F4E04323F07003FB817A683B681B7867
:1059EC009B001A44FB8943F07F4343F47F0343F449
:1059FC00004343F0C0039BB213803B68DB78012B60
:105A0C006CD07A683B681B789B0013441B889BB254
:105A1C0023F4E04323F04003BB81BB8983F02003D4
:105A2C00BB817A683B681B789B001A44BB8943F0A6
:105A3C007F4343F47F0343F4004343F080039BB262
:105A4C0013804BE07A683B681B789B0013441B88DF
:105A5C00FB82FB8A03F48043002B1BD07A683B68E3
:105A6C001B789B0013441B889BB223F4E04323F068
:105A7C007003BB827A683B681B789B001A44BB8A14
:105A8C0043F07F4343F47F0343F4404343F08003EC
:105A9C009BB213807A683B681B789B0013441B886D
:105AAC009BB223F4804323F070037B827B8A83F4C4
:105ABC0080537B827B8A83F400537B827A683B68B9
:105ACC001B789B001A447B8A43F07F4343F47F038B
