:020000040800F2
:1000000000500020B902000895020008970200087D
:10001000990200089B0200089D02000800000000F1
:100020000000000000000000000000009F02000827
:10003000A102000800000000A3020008A5020008B9
:100040000103000801030008010300080103000880
:100050000103000801030008010300080103000870
:100060000103000801030008010300080103000860
:100070000103000801030008010300080103000850
:100080000103000801030008010300080103000840
:10009000A902000801030008010300080103000889
:1000A0000103000801030008010300080103000820
:1000B0000103000801030008010300080103000810
:1000C0000103000801030008010300080103000800
:1000D00001030008010300080103000801030008F0
:1000E00001030008010300080103000800000000EC
:1000F0000000000000000000000000000000000000
:0C01000000000000000000005FF808F1A3
:10010C0010B5054C237833B9044B13B10448AFF345
:10011C0000800123237010BD7C0100200000000032
:10012C008031000808B5034B1BB103490348AFF3FA
:10013C00008008BD00000000800100208031000814
:10014C0030B595B0142200210CA802F0E7FF142260
:10015C00102500210DEB020002F0E0FF2A460021E1
:10016C0001A802F0DBFF02244FF480330122CDE919
:10017C001143CDE90A234FF4E0130AA80E9213930E
:10018C0001F0D6F808B172B6FEE70F23CDE90534BD
:10019C004FF480630790CDE90830214605A801F0A3
:1001AC0089FA08B172B6FEE7049001A8019501F036
:1001BC001DFB08B172B6FEE715B030BD00B589B0B5
:1001CC0000F0BEF8FFF7BCFF102200210DEB02007F
:1001DC0002F0A4FF184B4FF400519A69174842F0F3
:1001EC0010029A619A6902F010020192019A9A69BE
:1001FC0042F020029A619A6902F020020292029A5D
:10020C009A6942F004029A619B69002203F004038C
:10021C000393039B00F0F6F94FF4005201230021E5
:10022C00CDE9042302230548CDE9061304A900F007
:10023C000FF902F06DFDFEE70010024000100140C6
:10024C0072B6FEE70E4B82B09A6942F001029A61D7
:10025C009A6902F001020092009ADA6942F0805227
:10026C00DA61DB69074A03F080530193019B536801
:10027C0023F0E06343F00073536002B0704700BF9B
:10028C000010024000000140FEE7FEE7FEE7FEE73B
:10029C00FEE770477047704700F064B8014800F003
:1002AC005BBA00BF6C0E002070470000FFF7FCFF2C
:1002BC000B480C490C4A002302E0D458C4500433B8
:1002CC00C4188C42F9D3094A094C002301E013608D
:1002DC000432A242FBD302F029FFFFF76FFF7047F5
:1002EC00000000207C010020083200087C01002066
:1002FC007C130020FEE7000038B50E4B05461A783B
:10030C004FF47A73B3FBF2F30B4A1068B0FBF3F0C3
:10031C0000F08AF8044658B90F2D09D80246294630
:10032C004FF0FF3000F042F82046044B1D6038BD02
:10033C000120FCE704000020000000200800002041
:10034C00074A08B51368032043F01003136000F04C
:10035C001BF80F20FFF7D0FFFFF774FF002008BD3C
:10036C0000200240034A044B11681B780B441360B5
:10037C00704700BF9801002004000020014B186852
:10038C00704700BF9801002007490302CA6803F4B4
:10039C00E06322F4E0621204120C134343F0BF63D7
:1003AC0043F40033CB60704700ED00E0154B30B5E3
:1003BC00DC68C4F30224C4F10703251D042B28BFF9
:1003CC000423062D4FF0FF3594BF0024033C05FA9F
:1003DC0003F321EA0303A54022EA0502A340002807
:1003EC0043EA0203ACBF00F16040074A4FEA031333
:1003FC00DBB2ABBF00F5614000F00F0080F80033BA
:10040C00135430BD00ED00E014ED00E0002807DBD4
:10041C0001234109034A00F01F00834042F82130B8
:10042C00704700BF00E100E00138B0F1807F0BD2D3
:10043C004FF0E023F021054A586182F82310002088
:10044C00072298611A6170470120704700ED00E0A7
:10045C002DE9F74F00221646644F654BDFF894C127
:10046C00DFF894E10D6835FA06F402D103B0BDE86B
:10047C00F08F4FF0010808FA06F805EA080438EA8C
:10048C0005057AD14D68032D07D8013D022D00F2E8
:10049C008780DFE805F0959AA000122D00F0988077
:1004AC006DD8112D00F08E80FF2C98BF82464FF036
:1004BC000F0988BF00F1040A4FEA8605DAF80080BC
:1004CC0088BF203D09FA05FB28EA0B0802FA05F55E
:1004DC0048EA0505CAF80050D1F804A01AF0805F6C
:1004EC004BD0BD6926F0030845F00105BD61BD691F
:1004FC0008F1804805F00105019508F5803806F0F3
:10050C00030B019D4FEA8B0BD8F8085009FA0BF935
:10051C0025EA0909394DA84261D005F58065A84244
:10052C005FD005F58065A8425DD005F58065A842D1
:10053C000CBF0325042505FA0BF545EA0905C8F897
:10054C0008509D681AF4801F14BF2543A5439D6075
:10055C00DD681AF4001F14BF2543A543DD605D68F8
:10056C001AF4003F14BF2543A5435D601D681AF4BF
:10057C00803F14BF2543A5431D60013672E7DFF8A9
:10058C0080904D450CD017D8A9F580194D4507D052
:10059C0009F570294D4503D0A9F580194D4583D136
:1005AC008A68D2B1012A08BFC0F810804FF0080247
:1005BC0018BFC0F8148077E76545F1D07545EEE7B4
:1005CC00CA6871E7CA6804326EE7CA6808326BE71A
:1005DC00CA680C3268E7002266E7042264E700254B
:1005EC00A9E70125A7E70225A5E700BF00100240F7
:1005FC0000040140000031100000321000080140DE
:10060C00000022100AB1016170470904FBE7F0B544
:10061C00044687B010B390F8A93203F0FF021BB95F
:10062C0080F8A82202F06EFC032325466E4684F85F
:10063C00A93255F8100B01F063F90FCD0FC62B68DA
:10064C00271D3360264697E80E0056F8100B01F074
:10065C0047F9054620B1022384F8A93201254BE065
:10066C000146206801F056F929464FF0010E282565
:10067C000A46D4F804C0C8B2844501F101011BD864
:10068C00002328251946D8B2844503F101031FD84D
:10069C00EC4635460FCDACE80F002B68CCF800309B
:1006AC0097E80E00206801F037F901230546E0B108
:1006BC00022284F8A922D1E705FB0043C3E90E22EC
:1006CC0083F829E083F8280083F82B201A64D2E7FA
:1006DC0005FB0042C2E95E1182F8691182F86801DB
:1006EC0082F86B11C2F88011CDE784F824002068E1
:1006FC0084F8A93201F0C8FB284607B0F0BD38B524
:10070C0090F8A8320446012B10D0012580F8A8528D
:10071C00006801F0ECF82946204602F0FEFC206847
:10072C0001F0B0FB002084F8A80238BD0220FCE7E1
:10073C0010B590F8A8220446012A0BD0012280F8AB
:10074C00241080F8A822006801F096FB002084F8A1
:10075C00A80210BD0220FCE72DE9F04F044685B03D
:10076C00006801F093FB10F4004500F02484DFF8DE
:10077C001C93DFF81C832068B0F844301F0402D4AB
:10078C0005B0BDE8F08FB0F84460B1B216F00F06BA
:10079C0040F0C68011F010012BD103889BB203EA04
:1007AC00090343F400430380B0F8503094F8282038
:1007BC009BB203EBC20300EB4303B3F80434E26BCC
:1007CC00C3F309031A4463642046E26302F0C9FBD5
:1007DC0094F82430002BCED0226C2168002ACAD188
:1007EC0094F8243043F08003A1F84C3084F8242092
:1007FC00C1E70588ABB215F4006521D0B0F85030D4
:10080C0094F868219BB203EBC20300EB4303B3F8EB
:10081C000C34B4F86E21C3F30903C4F8843104F525
:10082C002C7101F061FD22682046138823F07003BF
:10083C001B051B0D43F08003138002F083FB9AE72A
:10084C00190498D5038823F070031B051B0D43F086
:10085C0080030380B0F8503094F868219BB203EB0E
:10086C00C20300EB4303B3F80C34C3F30903C4F81D
:10087C0084318BB1D4F87C1171B1B4F86E2101F0D4
:10088C0033FDD4F87C31D4F8842129461344204616
:10089C00C4F87C3102F05CFB21680A8893B2120523
:1008AC003FF569AF03F44053B3F5405F3FF463AFDA
:1008BC00B1F8503001F20C409BB2C25AC2F309029B
:1008CC00C252D4F878213E2A0CD95509D706C25AFF
:1008DC0008BF05F1FF3592B242EA852242EA0802CE
:1008EC0092B204E09AB9C25A92B242F40042C25295
:1008FC000B8823F4804323F070031B041B0C83F43C
:10090C00405343F4004343F080030B8033E7550816
:10091C00D607C25A48BF013592B242EA8522DFE7B8
:10092C0030F826301A049FB240F1F180282130F8BB
:10093C00263001FB064123F070031B051B0D43F011
:10094C00800320F8263091F8743100F5806CB3B92F
:10095C00B0F8503091F868219BB2063303EBC20318
:10096C003CF81350C5F30905002D00F0B4802B465C
:10097C00B1F86E21D1F87C1101F0B6FCABE091F826
:10098C006B2191F86831022A40F08480B0F8505005
:10099C004FEAC30BADB217F4804AD1F880215D4405
:1009AC0007F0400E39D002353CF81550C5F3090557
:1009BC00954213D90022C1F8802130F8232022F46B
:1009CC00804222F070021204120C82F4005242F4A3
:1009DC00004242F0800220F8232004E0521BC1F8B0
:1009EC008021002AE9D0BEF1000F0DD030F8232071
:1009FC0022F4E04222F070021204120C42F4004283
:100A0C0042F0C00220F82320002D64D0282101FBE5
:100A1C0006412B46B1F87021ACE706353CF8155071
:100A2C00C5F30905954212D9C1F880A130F82320ED
:100A3C0022F4804222F070021204120C82F4005252
:100A4C0042F4004242F0800220F8232004E0521BC2
:100A5C00C1F88021002AE9D0BEF1000F0DD130F889
:100A6C00232022F4E04222F070021204120C42F411
:100A7C00004242F0C00220F8232065B3282101FB7C
:100A8C0006412B46B1F8722174E700BF0F8FFFFFB0
:100A9C000080FFFF30F8232022F4E04222F07002A5
:100AAC001204120C42F4004242F0C00220F823203F
:100ABC0091F8682130F82230D20013F4804FB0F84E
:100ACC0050309BB255D0023313443CF81350C5F34D
:100ADC000905002D9DD1282171436318D3F8842179
:100AEC002A44C3F88421D3F87C212A44C3F87C21FE
:100AFC00D3F880211AB1D3F878319D4242D2282301
:100B0C0003FB0643204693F8681102F021FA3B06DA
:100B1C0020687FF530AE282230F8263002FB0645DF
:100B2C009BB203EA090343F4004320F8263095F8FE
:100B3C002B30012B50D1002195F83430296493B31C
:100B4C0017F0400795F8292095F8283031D002BBD2
:100B5C00B0F850201B0192B200F2044010441A5A13
:100B6C00C2F309021A521A5A92B242F400421A52B1
:100B7C0019E006331A443CF81250C5F30905002D50
:100B8C00A9D07EE701F5B4712068214401F094F9F5
:100B9C00BDE7012A07D1B0F8502000F2044092B210
:100BAC001B011044195295F82810204602F0D9F96F
:100BBC00E1E532B9B0F850201B0192B200F20C40C2
:100BCC00CCE7012AEFD1B0F8502000F20C4092B2E1
:100BDC001B0110441F52E6E795F8281017F4807C8F
:100BEC002B6C4FEAC10A00F5806E1BD1B0F8507027
:100BFC00BFB2574402373EF81770C7F309079F423C
:100C0C0002D3C5F840C0D0E7DB1B2B64EB6B06FBB3
:100C1C0002223B44EB636B6CA1183B446B6401F008
:100C2C004BF9A8E5B0F8502017F0400C92B25244A2
:100C3C0007F4804700F0DC8002323EF812204FF0BF
:100C4C00280CC2F309029A4228BF00230CFB064C65
:100C5C0038BF9B1ACCF84030BFB2002B4DD195F861
:100C6C002920002A36D1B0F8502000F2044692B266
:100C7C000B011644F25AC2F30902F252F25A92B222
:100C8C0042F40042F252B0F8502000F20C4092B202
:100C9C001044C25AC2F30902C252C25A92B242F46E
:100CAC000042C252204602F05CF9002F00F0DC80BA
:100CBC0095F82810226832F8213023F4E04323F011
:100CCC0070031B041B0C43F4404343F0800322F8D5
:100CDC002130C9E0012AE5D1B0F850C000F2044639
:100CEC001FFA8CFC0A016644B352B0F8506000F253
:100CFC000C40B6B230448352D4E76FB130F8213097
:100D0C0023F4E04323F070031B041B0C43F4404317
:100D1C0043F0800320F82130282707FB064797F87B
:100D2C004C30012B40F0A080FB6BD7F848E003EB74
:100D3C00020C7B6CC7F83CC013447B64BB6B9E45B8
:100D4C002CD3AEEB0302BA6495F829201FFA83FE6C
:100D5C00002A41D1B0F8507000F20442BFB23A44BC
:100D6C000901575A3E2BC7F30907575223D9DF06FF
:100D7C00575A4FEA531A08BF0AF1FF3ABFB247EA73
:100D8C008A2747EA0807BFB25752282273466146A2
:100D9C0002FB0642128E01F07FF865E0BEF1000FF7
:100DAC0003D1134687F84CE0CEE7002387F84C308C
:100DBC00BB647346C8E72BB9535A9BB243F4004348
:100DCC005352E2E75F08DB07535A48BF01379BB227
:100DDC0043EA87239BB2F3E7012AD6D1B0F850201F
:100DEC0000F2044392B21344090123F801E0CCE76A
:100DFC0006323EF81220BFB2C2F309029A4288BFF3
:100E0C0063464FF0280C0CFB064C98BF9B1ACCF891
:100E1C004030002B4ED195F82920002A37D1B0F85C
:100E2C00502000F2044692B20B011644F25AC2F35F
:100E3C000902F252F25A92B242F40042F252B0F863
:100E4C00502000F20C4092B21044C25AC2F3090274
:100E5C00C252C25A92B242F40042C252204602F02E
:100E6C0080F8002F3FF424AF95F82810226832F850
:100E7C0021309BB223F4E04323F0400383F0300392
:100E8C0043F4004343F0800322F8213073E4012A39
:100E9C00E4D1B0F850C000F204461FFA8CFC0A01F1
:100EAC006644B352B0F8506000F20C40B6B2304415
:100EBC008352D3E76FB930F8213023F4E04323F0A9
:100ECC0070031B041B0C43F4404343F0800320F8D5
:100EDC0021304FF0280C0CFB064C9CF84C30012BAD
:100EEC00C2D1DCF84430DCF83C701344DCF848E048
:100EFC00CCF84430DCF8383017449E45CCF83C70C4
:100F0C0027D3AEEB0302CCF8482095F829201FFA22
:100F1C0083FC002A43D1B0F850E000F20C421FFAD7
:100F2C008EFE7244090132F801E03E2BCEF3090E1D
:100F3C0022F801E01BD94FEA531EDB06535A08BFB7
:100F4C000EF1FF3E9BB243EA8E2343EA08039BB2A9
:100F5C0012E0BEF1000F03D113468CF84CE0D4E73D
:100F6C000023CCF848308CF84C307346CDE75BB995
:100F7C00535A9BB243F400435352282303FB0646B7
:100F8C0039466346728E06E74FEA530EDB07535A17
:100F9C0048BF0EF1010E9BB243EA8E23D7E7012A1C
:100FAC00EBD1B0F8502000F20C4392B213440A017A
:100FBC0023F802C0E1E7460512D522682046B2F8B4
:100FCC00443023F480631B041B0CA2F8443001F062
:100FDC00D4FF2946204605B0BDE8F04FFFF7A8BB6B
:100FEC0041040AD52268B2F8443023F480431B0430
:100FFC001B0CA2F84430FFF7C3BB820405D5226852
:10100C00B2F8443023F40053F1E7C30419D5226835
:10101C002046B2F8403023F004031B041B0CA2F84A
:10102C004030B2F8403023F008031B041B0CA2F82C
:10103C00403001F0C5FF2268B2F8443023F48053ED
:10104C00D5E7070548D5684622680646114613467B
:10105C0002F1200533F8047B9D4226F8027BF9D17E
:10106C00B2F840309BB243F00103A2F84030B2F822
:10107C00403023F001031B041B0CA2F84030B2F8E3
:10108C0044305E05FBD5B2F8443023F480631B0476
:10109C001B0CA2F8443030F8023B21F8043B8D4283
:1010AC00F9D1B2F8403020469BB243F00803A2F8C5
:1010BC004030B2F8443023F400631B041B0CA2F83C
:1010CC004430B2F840309BB243F00403A2F84030F5
:1010DC0001F066FFFFF754BB82050DD52268204650
:1010EC00B2F8443023F400731B041B0CA2F84430F8
:1010FC0001F03FFFFFF744BBC3057FF541AB22680E
:10110C00B2F8443023F4807371E700BF11F0800F04
:10111C0070B5054601F007004FF028011AD00124E4
:10112C0000FB011129444C70022BCB7008BF00232B
:10113C00087008BF0B710A6195F8A832012B13D007
:10114C000123286885F8A83200F0FAFB002085F806
:10115C00A80270BD002601FB00F404F5B4712C4408
:10116C00294484F86961DFE70220F2E711F0800F6F
:10117C0010B501F0070204464FF0280113D00123EB
:10118C0002FB011101444B700A7094F8A832012B38
:10119C0013D00123206884F8A83200F031FD002020
:1011AC0084F8A80210BD01FB02F303F5B4710144ED
:1011BC000344002083F86901E6E70220F2E770B5EA
:1011CC002824002601F007014C43051985F8681105
:1011DC0004F5B4710144C5E95F23C5F8846185F851
:1011EC006961006800F068FE304670BD282301F08C
:1011FC00070103FB0100D0F88401704770B501F0C2
:10120C000705282101FB05040026C4E90F23012250
:10121C0005FB011184F84C200144A364666484F836
:10122C00292084F82850006800F046FE304670BD36
:10123C0038B5436801F007059D42044628D811F0E3
:10124C00800F4FF028031AD005FB0333C11801237C
:10125C004B7001230D708B7094F8A8229A4219D010
:10126C00206884F8A83200F09EFD25B9206804F5AA
:10127C002C7100F00FFE002084F8A80238BD00226B
:10128C004B4303F5B4710344014483F86921E0E74F
:10129C000120F3E70220F1E738B5436801F00F02B3
:1012AC009A42044626D811F0800F01F007024FF045
:1012BC00280115D0012302FB011101444B700025BC
:1012CC000A708D7094F8A832012B15D00123206878
:1012DC0084F8A83200F087FD284684F8A85238BD5F
:1012EC0001FB02F303F5B47101440344002083F8BD
:1012FC006901E4E70120F2E70220F0E710B52824A9
:10130C0011F0800F1BBF01F0070101FB044404FB2B
:10131C000100001908BF00F5B47099B21AB9027334
:10132C00C180002010BD012283600273F9E7000028
:10133C002DE9F341054638B30368DB0710D42B685D
:10134C009F075ED42B68190700F195802B685A070C
:10135C0000F1C180E869002840F02C81002029E0D0
:10136C00904C636803F00C03042B07D0636803F004
:10137C000C03082B0AD16368DE0307D523689C0392
:10138C00DDD56B68002BDAD1012013E06B68B3F567
:10139C00803F12D1236843F480332360FEF7EEFFC5
:1013AC00064623689803CAD4FEF7E8FF801B64281E
:1013BC00F7D9032002B0BDE8F0819BB9236823F470
:1013CC0080332360236823F480232360FEF7D6FF49
:1013DC00064623689903B2D5FEF7D0FF801B64281C
:1013EC00F7D9E6E7B3F5A02F236803D143F48023A4
:1013FC002360CFE723F480332360236823F4802316
:10140C00CBE7684C636813F00C0F07D0636803F0EC
:10141C000C03082B10D16368DA030DD423689B07E7
:10142C0002D52B69012BAFD123686A6923F0F8032D
:10143C0043EAC203236085E72A695B4B6AB1012248
:10144C001A60FEF79BFF064623689F07ECD4FEF755
:10145C0095FF801B0228F7D9ABE71A60FEF78EFFC9
:10146C000646236898077FF56DAFFEF787FF801B54
:10147C000228F6D99DE7AA694A4E4B4BE2B10122EC
:10148C00C3F88024FEF77AFF0446736A9B070DD5D8
:10149C004FF4FA52454B1B68B3FBF2F3019300BFB8
:1014AC00019B5A1E0192002BF9D14FE7FEF766FF04
:1014BC00001B0228E9D97CE7C3F88024FEF75EFF05
:1014CC000446736A9F077FF541AFFEF757FF001B79
:1014DC000228F6D96DE7334CE369D80024D40127F0
:1014EC00E36943F08053E361E36903F080530093B5
:1014FC00009B2F4E3368D90518D5EB68012B26D1EC
:10150C00236A43F001032362FEF738FF41F2883867
:10151C000646236A9B073FD5002F3FF41BAFE369B8
:10152C0023F08053E36115E70027E2E7336843F4C7
:10153C0080733360FEF722FF80463368DA05DCD413
:10154C00FEF71CFFA0EB08006428F6D931E7ABB915
:10155C00236A41F2883823F001032362236A23F0C3
:10156C0004032362FEF70AFF0646236A9807D3D5C5
:10157C00FEF704FF801B4045F7D91AE7052B236AB9
:10158C0003D143F004032362BAE723F0010323627F
:10159C00236A23F00403B6E7FEF7F0FE801B4045F8
:1015AC00B7D906E7001002400000424200000020BC
:1015BC00007000402A4C636803F00C03082B3ED0EB
:1015CC000022284B02281A662CD1FEF7D7FE0646BD
:1015DC002368990120D42B6AB3F5803F05D162684A
:1015EC00A96822F400320A436260696A62680B439C
:1015FC0022F474121343012263601A4B1A66FEF72D
:10160C00BDFE054623689A013FF5A8AEFEF7B6FE6F
:10161C00401B0228F6D9CCE6FEF7B0FE801B022850
:10162C00D6D9C6E6FEF7AAFE054623689B017FF5D0
:10163C0095AEFEF7A3FE401B0228F6D9B9E60128A9
:10164C003FF4B8AE63682A6A03F4803191427FF4A8
:10165C009BAE6A6A03F4701393423FF47FAE93E639
:10166C0000100240000042420D4A536803F00C0186
:10167C00082912D10B48C3F38341DB03405C09D525
:10168C005368094AC3F340435043084AD35CB0FB48
:10169C00F3F07047064B584370470348704700BF40
:1016AC0000100240A831000800127A00B83100087E
:1016BC0000093D002DE9F0410D46044610B901200A
:1016CC00BDE8F081444A136803F007038B4228D32A
:1016DC0021688E0730D4CA0743D43F4A136803F0FD
:1016EC000703AB4265D822683C4D12F0040F6CD155
:1016FC00130706D56B68226923F4605343EAC203CF
:10170C006B60FFF7B1FF6B68354AC3F30313D35C0F
:10171C00D840344B1860344B1868FEF7EDFD0020B0
:10172C00CEE7136823F007030B431360136803F031
:10173C0007038B42C3D1CBE7284B11F0040F1EBF1C
:10174C005A6842F4E0625A60080742BF5A6842F491
:10175C0060525A605A68A06822F0F00202435A6044
:10176C00B9E762681D4E012A33681AD113F4003FA1
:10177C00A5D0736841F2883823F0030313437360D8
:10178C00FEF7FCFD07467368626803F00C03B3EBCD
:10179C00820FA2D0FEF7F2FDC01B4045F3D9032007
:1017AC008EE7022A02D113F0007FE1E713F0020F5B
:1017BC00DEE7136823F007032B431360136803F071
:1017CC000703AB427FF47BAF8DE76B68E16823F4D2
:1017DC00E0630B436B608BE700200240001002407B
:1017EC0098310008000000200800002003682DE953
:1017FC00F341D907054621D5364CE369DA0033D4D9
:10180C000126E36943F08053E361E36903F08053FD
:10181C000193019B304F3B68DB0527D5236A6A682F
:10182C0013F4407336D1236A6A6823F4407313436C
:10183C0023621EB1E36923F08053E36128688307B8
:10184C0006D52449AB684A6822F440421A434A60E0
:10185C0010F010001BD01F4AE9685368002023F4D5
:10186C0080030B43536012E00026D3E73B6843F43C
:10187C0080733B60FEF782FD80463B68D805CDD473
:10188C00FEF77CFDA0EB08006428F6D9032002B01B
:10189C00BDE8F08102F440729A42C4D001200F4A94
:1018AC00236AC2F84004002023F44071C2F84004BB
:1018BC002162D907B7D5FEF761FD41F2883807469A
:1018CC00236A9A07AFD4FEF759FDC01B4045F7D9E0
:1018DC00DCE700BF001002400070004000004242F4
:1018EC0084B001A880E80E0004B0002070470346C5
:1018FC004FF43F420020A3F84400A3F84020704767
:10190C00B0F8403023F47C535B045B0CA0F84030FF
:10191C00002070470020704784B010B5044603A81F
:10192C0080E80E0000200123A4F84030A4F8400009
:10193C00A4F84400A4F85000BDE8104004B070476F
:10194C00F0B50A78CD7830F82240034624F4EC4404
:10195C0024F070042404240C032D4BD8DFE805F08C
:10196C0002474543284644F4007448F28006344349
:10197C0023F8224033F822409E4FA4B23C4014433B
:10198C00344323F822400C7B03EB021C002C40F068
:10199C008B80CC884E78640864006EB3B3F850101A
:1019AC0089B26144A1F8004433F82210490609D5E4
:1019BC0033F8221089B2394041F4004141F0C001A2
:1019CC0023F8221033F822108B4C89B2012D01EA36
:1019DC00040101D081F0200141F4004141F080016B
:1019EC0023F822104AE044F4C0640020BDE744F41C
:1019FC008064FAE70120B8E7B3F850500969ADB23A
:101A0C006544A5F80844B3F850403E29A4B2644498
:101A1C00B4F80C54C5F30905A4F80C542FD94D098E
:101A2C00CE06B4F80C1408BF05F1FF3589B241EAB3
:101A3C0085216FEA41416FEA514189B2A4F80C1437
:101A4C0033F822104F040DD533F8221021F4E04165
:101A5C0021F070010904090C41F4404141F080016E
:101A6C0023F82210654CC2B91A8892B2224082F433
:101A7C00405242F4004242F080021A80F0BD11B98B
:101A8C00B4F80C14D5E74D08C907B4F80C1448BFCA
:101A9C00013589B241EA8521CFE733F8221089B2AA
:101AAC00214081F4005197E7022D33F822405BD19D
:101ABC00A4B23C4044F4014444F0800423F8224096
:101ACC00B3F850400E89A4B2760864447600A4F8AA
:101ADC0000644E89B3F850407608A4B26444760092
:101AEC00A4F808644978002948D133F822104E0430
:101AFC000DD533F8221021F4E04121F070010904D6
:101B0C00090C41F4404141F0800123F8221033F8D4
:101B1C0022104D060DD533F8221021F4E04121F0AE
:101B2C0070010904090C41F4004141F0C00123F893
:101B3C00221048F2800433F8221021F4804121F065
:101B4C0070010904090C81F44051214323F822103F
:101B5C0033F8221021F4E04121F040010904090C72
:101B6C000C4323F8224089E724F4E24424F0700467
:101B7C002404240C264323F82260A1E733F8221016
:101B8C004C040DD533F8221021F4E04121F0700102
:101B9C000904090C41F4404141F0800123F8221062
:101BAC0033F8221049060DD533F8221021F4E04108
:101BBC0021F070010904090C41F4004141F0C0010D
:101BCC0023F8221033F822100B4C89B22140012D3E
:101BDC0018BF81F0200141F4004141F0800123F84D
:101BEC00221033F8221021F4804121F070010904F5
:101BFC00090CF1E68F8FFFFFBF8FFFFF8FBFFFFF39
:101C0C004A780B78097BD9BB0AB330F823205106EC
:101C1C000DD530F8232022F4E04222F07002120499
:101C2C00120C42F4004242F0C00220F8232030F89B
:101C3C00232022F4E04222F040021204120C42F45F
:101C4C00004242F0800220F823200020704730F838
:101C5C00232052040DD530F8232022F4E04222F048
:101C6C0070021204120C42F4404242F0800220F83E
:101C7C00232030F8232022F4804222F07002DCE78B
:101C8C00002A4AD130F8232051040DD530F82320F6
:101C9C0022F4E04222F070021204120C42F4404290
:101CAC0042F0800220F8232030F8232052060DD574
:101CBC0030F8232022F4E04222F070021204120CBD
:101CCC0042F4004242F0C00220F8232048F2800186
:101CDC0030F8232022F4E04222F070021204120C9D
:101CEC0042F4004242F0C00220F8232030F82320B6
:101CFC0022F4804222F070021204120C0A4320F8E3
:101D0C00232030F8232022F4E04222F04002120477
:101D1C00120C114320F8231097E730F823205104BC
:101D2C000DD530F8232022F4E04222F07002120488
:101D3C00120C42F4404242F0800220F8232030F88A
:101D4C00232052060DD530F8232022F4E04222F055
:101D5C0070021204120C42F4004242F0C00220F84D
:101D6C00232048F2800130F8232022F4E04222F0B4
:101D7C0070021204120C42F4404242F0800220F82D
:101D8C00232030F8232022F4E04222F040021204F7
:101D9C00120C0A4320F8232030F8232022F480422E
:101DAC0022F07002B3E74B780A788BB130F822300E
:101DBC0023F4E04323F040031B041B0C83F01003BB
:101DCC0043F4004343F0800320F822300020704796
:101DDC0030F8223023F4804323F070031B041B0CD7
:101DEC0083F48053ECE70B7B3BBB4B780A7833B323
:101DFC0030F822305B060DD530F8223023F4E04366
:101E0C0023F070031B041B0C43F4004343F0C0038A
:101E1C0020F82230CB78012B0FD030F8223023F46D
:101E2C00E04323F040031B041B0C83F0200343F41A
:101E3C00004343F0800320F822300020704730F834
:101E4C0022305B040DD530F8223023F4E04323F02C
:101E5C0070031B041B0C43F4404343F0800320F835
:101E6C00223030F8223023F4804323F070031B041B
:101E7C001B0C83F44053DAE711B98023A0F84C30E3
:101E8C00002070470020704700207047B0F84400D5
:101E9C0080B270470020704700EB4200013300F520
:101EAC0080605B0800EB8303834200D1704731F8FC
:101EBC00022B20F8042BF7E72DE9F0470C46497864
:101ECC0005460129227B40F01881D4F81090A769AF
:101EDC0061694F4528BF4F460ABBBFB2E2883B46FB
:101EEC00FFF7DAFFB5F85000217880B205F2044212
:101EFC00090102448F52227835F8223023F4E04352
:101F0C0023F040031B041B0C83F03003002043F42C
:101F1C00004343F0800325F82230BDE8F087E378D6
:101F2C0094F800E0022B266A4FEA0E1C40F0D08099
:101F3C00B14530F82E2080F0B48022F4E04222F03B
:101F4C0070021204120C42F4014242F0800220F89A
:101F5C002E2030F82E80B0F850E0F61B18F0400818
:101F6C00266201EB070ABBB21FFA8EFE4ED000F2BE
:101F7C000C42724422F80C306289FFF78DFFB14598
:101F8C0036BFF31B00233E4662782362C4F814A0CC
:101F9C00B3B27ABBB5F85020207892B205F2044166
:101FAC0000011144425A3E2EC2F30902425215D985
:101FBC00F206425A4FEA561708BF07F1FF3792B2A2
:101FCC0042EA87226FEA42426FEA524292B242528E
:101FDC00228951462846FFF75FFF8CE70EB9425A1B
:101FEC00F0E7425A7708F60748BF013792B242EA47
:101FFC008722EBE7012AEBD1B5F85000217880B2AB
:10200C0005F20442090102448B52E1E700F204425A
:10201C00724422F80C302289FFF73EFFB14536BFDF
:10202C00F31B43463E4662782362C4F814A0B3B255
:10203C005ABBB5F85020207892B205F20C41000141
:10204C001144425A3E2EC2F30902425211D9F206F1
:10205C00425A4FEA561708BF07F1FF3792B242EACD
:10206C0087226FEA42426FEA524292B2425262892E
:10207C00AFE70EB9425AF4E7425A7708F60748BF61
:10208C00013792B242EA8722EFE7012AEFD1B5F885
:10209C005000217880B205F20C42090102448B52A7
:1020AC00E5E722F4E24222F070021204120C42F430
:1020BC00004242F0800220F82E20B0F8503000F29E
:1020CC0004429BB21A44B3B222F80C30228982E744
:1020DC0030F82E20F61B2662B0F850605206BBB2C8
:1020EC00B6B206D500F20C42324422F80C306289AA
:1020FC0071E700F204423244E6E7D2B9A3692169E0
:10210C00B0F850008B4284BF5A1A0B462178A2615A
:10211C0080B205F20C4209010244505A3E2BC0F326
:10212C000900505200F2C580002B40F0D280535A67
:10213C00C8E0E378022B7CD100294BD1B0F85030A9
:10214C0020789BB205F2044100011944435AC3F3B1
:10215C000903435223693E2B20D9425A5E09DF06FC
:10216C0008BF06F1FF3692B242EA86226FEA42427B
:10217C006FEA524292B24252B5F85000227880B2C5
:10218C0005F20C4112010144505A3E2BC0F30900D8
:10219C00505210D8002B43D1535A15E00BB9425A68
:1021AC00E4E7DA07425A4FEA530648BF013692B2C7
:1021BC0042EA8622DEE75809DF06535A08BF00F1CF
:1021CC00FF309BB243EA80236FEA43436FEA5343E9
:1021DC009BB25352E369BBB144F24003227835F809
:1021EC00221003EA01008B4300D068B935F8223085
:1021FC0023F4E04323F070031B041B0C43F4004353
:10220C0043F0C00325F82230227835F8223023F42D
:10221C00804323F070031B041B0C83F4405375E6BE
:10222C005808DE07535A48BF01309BB243EA80235B
:10223C00CEE7012B56D1A3692269934294BF0020AB
:10224C00981AA06188BF13460029DDD1B5F850203B
:10225C00207892B205F2044100011144425A3E2BFF
:10226C00C2F30902425218D9DA06425A4FEA5316FF
:10227C0008BF06F1FF3692B242EA86226FEA42426A
:10228C006FEA524292B24252B5F85000227880B2B4
:10229C0005F20C41120101443FE70BB9425AEDE73C
:1022AC00425A5E08DF0748BF013692B242EA8622E4
:1022BC00E8E75809DE06535A08BF00F1FF309BB21D
:1022CC0043EA80236FEA43436FEA53439BB2535272
:1022DC009AE75808DB07535A48BF01309BB243EAD0
:1022EC008023F3E7012018E600EB4200F0B500F57F
:1022FC0080605D080C4607462E46023436B9DB0773
:10230C0044BF30F8253001F81530F0BD37F8042BF8
:10231C00013E92B204F8022C120A04F8012CECE7EC
:10232C00D0F8BC3210B56BB1D0F8B84294F80002BA
:10233C00FF2807D09B68214694F801229847FF2379
:10234C0084F80032002010BD4323038000487047FE
:10235C00440000204323038000487047880000207D
:10236C004323038000487047D80000200A230380D1
:10237C0000487047CC00002038B50446D0F8B8525D
:10238C0000F0C1FED4F8B832C5F80C024BB1D4F849
:10239C00BC32D5F80402DB6805F5037198470020C0
:1023AC0038BD0220FCE7F8B5D0F8B862D6B11424D9
:1023BC0004FB0103DC69D0F8C0527CB1282707FB71
:1023CC000152926BB4FBF2F502FB154434B9DC619B
:1023DC002246234600F085FE2046F8BD0020C6F8B4
:1023EC001402FAE70220F8E72DE9F7434FF0000852
:1023FC000A78054612F060040E46D0F8B8728DF8D3
:10240C000580ADF8068028D0202C42D1CC884B78A2
:10241C00E4B1120611D5D0F8BC223946D2F8089096
:10242C0018462246C84739462846F28800F02FFC49
:10243C004446204603B0BDE8F0832246394687F86F
:10244C00003287F8014200F037FCF1E7D0F8BC22EB
:10245C00184695682246A847EBE74B780A2B0CD018
:10246C000B2B12D0ABB990F89C32032B11D102225A
:10247C000DF1060100F00BFCDBE790F89C32032B0E
:10248C0007D101220DF10501F4E790F89C32032BE2
:10249C00CFD03146284600F0D3FB0224C9E738B52B
:1024AC0004460025812100F0E6FD01212046E5626D
:1024BC0000F0E1FD82212046C4F86C5100F0DBFDF8
:1024CC00D4F8B83225644BB1D4F8BC325B68984769
:1024DC00D4F8B80200F020FEC4F8B852002038BD81
:1024EC002DE9F041037C0446B3BB4FF4007381210A
:1024FC00022200F0B4FD01214FF40073E1620126C9
:10250C000222204600F0ABFD082303228221204644
:10251C00C4F86C6100F0A3FD4FF40770266400F062
:10252C00F7FD0546C4F8B80240B34FF00008D4F8E4
:10253C00BC321B689847C5F81482C5F81882277CF2
:10254C009FB94FF4007331462046D5F8042200F0B1
:10255C00D1FD3846BDE8F08140238121022200F0F4
:10256C007EFD01214023E162C9E74023314620462C
:10257C00D5F8042200F0BEFD4746EAE73746E8E707
:10258C0019B1C0F8BC120020704702207047D0F877
:10259C00B8320020C3F80812C3F810227047D0F8E4
:1025AC00B8320020C3F804127047D0F8B82210B526
:1025BC0082B1047CD2F8042234B94FF400730121A7
:1025CC0000F098FD204610BD4023012100F092FD43
:1025DC000024F7E70224F5E708B580B1D0F8B4324F
:1025EC0013B10023C0F8B43209B1C0F8B012012302
:1025FC00027080F89C3200F0E7FC002008BD02203D
:10260C00FCE719B1C0F8B4120020704702207047E3
:10261C0008B500F01BFD002008BD08B5D0F8B43299
:10262C0033B11B689847003818BF0120400008BD23
:10263C000220FCE708B5D0F8B4325B68984700205C
:10264C0008BD38B500F52A750446284600F0E4FAB2
:10265C00012394F8A812C4F89432B4F8AE32C4F83A
:10266C00983201F01F03012B08D0022B0BD07BB941
:10267C002946204600F0FCF8002038BD29462046AB
:10268C0000F01EFAF8E72946204600F03DFAF3E781
:10269C00204601F0800100F0F7FCEDE7F8B50446A8
:1026AC0017460D4639BBD0F89432032B1CD1D0E918
:1026BC00586296420BD9B61AB2423946C0F86061DC
:1026CC008CBFB2B292B200F004FB2846F8BDD0F831
:1026DC00B4321B6923B190F89C22032A00D198478D
:1026EC00204600F0FEFAF0E7052BEED1C4F8941268
:1026FC0000F0CAFCE9E7D0F8B4329B6933B190F82A
:10270C009C22032A02D198470025DEE70225DCE74C
:10271C00F8B5044617460D46002947D1D0F8943237
:10272C00022B3CD1D0E908639E4214D9F61A3946E3
:10273C000662B2B200F0B8FA2B462A462946204669
:10274C0000F0D8FC94F8A032012B02D1002384F8BD
:10275C00A0322846F8BDC269B2FBF3F603FB16267D
:10276C005EB9934209D8D0F898329A4205D20A46FB
:10277C0000F09AFAC4F89852DEE7D4F8B432DB6869
:10278C002BB194F89C22032A01D120469847802132
:10279C00204600F079FC204600F0AEFAD2E733F088
:1027AC000403CFD1802100F06FFCCBE7D0F8B4321A
:1027BC005B6933B190F89C22032A02D1984700251B
:1027CC00C7E70225C5E7002270B50446012540265F
:1027DC001146402300F043FC334680210022204662
:1027EC00C4F85851C4F8646100F039FC0021D4F8E5
:1027FC00B832A561666284F89C52C4F89412616088
:10280C00C4F8A41223B1D4F8B43220465B689847BC
:10281C00002070BD01740020704790F89C3280F845
:10282C009D32042380F89C320020704790F89C3233
:10283C00042B04BF90F89D3280F89C320020704726
:10284C0008B590F89C22032A04D1D0F8B432DB6985
:10285C0003B19847002008BD10B50446802100F054
:10286C0013FC2046BDE81040002100F00DBC000018
:10287C0037B50B78044603F06003202B0D4612D0BD
:10288C00402B10D0002B51D14B78092B4ED8DFE8C0
:10289C0013F0EE0009014D0002014D0087001300FA
:1028AC004D00D600A300D4F8B432294620469B68CC
:1028BC009847002003B030BD0023ADF806304B889C
:1028CC001A0A013A062A31D8DFE802F0041623303E
:1028DC0030485200D0F8B0321B68207C0DF1060154
:1028EC009847BDF80620EB88002A55D0002B4AD11A
:1028FC00204600F0F6F9DCE7027CD0F8B43232B9AD
:10290C009B6A0DF10600984702234370E9E7DB6AE6
:10291C00F7E7DBB2052B09D8DFE803F0030C101442
:10292C00181CD0F8B0325B68002BD6D12046FFF7CC
:10293C0093FFBEE7D0F8B0329B68F5E7D0F8B03221
:10294C00DB68F1E7D0F8B0321B69EDE7D0F8B032B4
:10295C005B69E9E7D0F8B0329B69E5E7037C002BB3
:10296C00E4D1D0F8B4320DF106005B6B9847B8E7B0
:10297C00037C002BDAD1D0F8B4320DF106001B6BBE
:10298C0098470723C1E79A4228BF1A4601462046BA
:10299C00ADF8062000F07BF9EB88002B89D1A7E776
:1029AC008B88002BC2D1CB88002BBFD14D887F2DBB
:1029BC00BCD890F89C32032BB8D0E9B280F89E12A8
:1029CC0000F086FB204600F08CF91DB1022384F840
:1029DC009C326EE70123FAE78978384D012929707A
:1029EC00A4D890F89C32022B08D0032B15D0FFF7FB
:1029FC0033FF20462978FFF71DFE5AE700293FF4E4
:102A0C0077AF01210323416080F89C322046FFF709
:102A1C0004FE02287FF46CAF88E731B902234160D1
:102A2C0080F89C32FFF706FE62E7416801293FF40B
:102A3C005FAFC9B2FFF7FEFD29786160E6E7CA888F
:102A4C00012A7FF473AF90F89C32022B0AD8002B2A
:102A5C003FF46CAF0146002341F8083F204600F0DC
:102A6C0016F926E7032B7FF461AF011DF6E790F80A
:102A7C009C32013B022B3FF659AFCA88022A7FF4E5
:102A8C0055AFD0F8A4320146002B14BF0323012309
:102A9C0041F80C3FE2E74B88012B7FF40AAFC4F8F6
:102AAC00A43225E790F89C32013B022B3FF63EAF57
:102ABC004B88012B7FF4FDAE0023F0E79C01002036
:102ACC0038B50B78044603F06002402A0D4601D05D
:102ADC005B0615D494F89C32013B022B10D82B7951
:102AEC00012B0DD8D4F8B43229469B682046984760
:102AFC00EB881BB910B9204600F0F3F8002038BD64
:102B0C002046FFF7A9FEF9E738B50A78044602F02B
:102B1C006002202A0B468D882CD0402A2AD0BABBC2
:102B2C005A78E9B2012A43D0032A2BD082BB90F801
:102B3C009C32022B53D0032B2AD1142201F00F0309
:102B4C0015F0800F02FB03035AD09B6903B31425C5
:102B5C0001F07F0303FB0555054411F07F0005D000
:102B6C00204600F0A3FA003818BF012002222946A3
:102B7C00286041E0D4F8B422194620469268904768
:102B8C00002038BD90F89C22022A1FD0032A03D0C3
:102B9C002046FFF761FEF3E75A882AB94A0603D0AC
:102BAC00DB880BB900F070FA204600F09AF8E7E7E2
:102BBC0090F89C22022A09D0032AE9D15B88002BC9
:102BCC00DED14D06F0D000F068FAEDE74B06DFD011
:102BDC0000F05AFA8021204600F056FAD0E74A0657
:102BEC00D6D12B064FF000034FF002024CBF00F180
:102BFC00140100F5AA710B60204600F048F8BFE7FD
:102C0C00D3F85831002BC3D0142301F07F0503FBFC
:102C1C00050505F5AA75A0E70B7803704B78437092
:102C2C00CA788B7803EB022343804A790B7903EB48
:102C3C0002238380CA798B7903EB0223C38070470C
:102C4C0010B50446802100F01FFA2046BDE8104064
:102C5C00002100F019BA30B588B1002401382346A0
:102C6C000134055D002DFAD1DBB201335B0013801A
:102C7C000B7003234B70022310F8014F04B930BDC5
:102C8C005A1CCC54D2B20233DBB28D54F4E7134647
:102C9C00022210B5C0E90733C0F894220A4600217D
:102CAC0000F01FFA002010BD08B513460A4600219B
:102CBC0000F017FA002008BD1346032210B5C0E936
:102CCC005733C0F894220A46002100F013FA002072
:102CDC0010BD08B513460A46002100F00BFA00207F
:102CEC0008BD08B50423C0F8943200231A461946CF
:102CFC0000F0F7F9002008BD08B50523C0F89432A0
:102D0C0000231A46194600F0F5F9002008BD000012
:102D1C0008B500220E490F48FFF75EFC08B1FDF71D
:102D2C008FFA0D490B48FFF76CFC08B1FDF788FAD8
:102D3C000A490848FFF724FC08B1FDF781FA054859
:102D4C00FFF766FC18B1BDE80840FDF779BA08BD7D
:102D5C002C010020A00100200C0000201C010020F0
:102D6C000020704700207047F8B50026154D01462D
:102D7C000446154F1548FFF712FC2E6094F90030ED
:102D8C004FF40051002BB4BF012200223846FDF74E
:102D9C0039FC00210E4A0F4B1660013B0FD109B1D3
:102DAC000D4B136023785B0023702B680133072BCA
:102DBC002B60E3DD0548FFF7F8FB0020F8BD01218F
:102DCC00EBE700BF640C002000100140A0010020C4
:102DDC00680C002041420F0040420F0010B5064C19
:102DEC00002220460549FFF7D2FB20460449FFF795
:102DFC00D6FB002010BD00BFA001002064080020FD
:102E0C0064040020122301480B8070474801002005
:102E1C00042301480B8070475C010020002370B52F
:102E2C001E464D1C040FB0F1204F34BF30343734E4
:102E3C0001F8134005F813600133DCB2A2424FEAEB
:102E4C000010EFD870BD00001A2310B50B800A4B90
:102E5C00D3F8E807D3F8F02780180AD0D3F8EC475A
:102E6C0006490822FFF7DAFF042220461031FFF74B
:102E7C00D5FF034810BD00BF00F0FF1F620100200A
:102E8C006001002010B5044C0A4604482146FFF7A7
:102E9C00E2FE204610BD00BF6C0C0020BA310008C9
:102EAC0010B5044C0A4604482146FFF7D4FE2046D0
:102EBC0010BD00BF6C0C0020CD31000810B5044CC7
:102ECC000A4604482146FFF7C6FE204610BD00BF47
:102EDC006C0C0020E331000810B5044C0A46044881
:102EEC002146FFF7B8FE204610BD00BF6C0C002039
:102EFC00EE31000803289ABF014B185C0220704782
:102F0C00FC31000807B50E4B02689A4215D103F547
:102F1C00DA33DA69142042F40002DA610022DB6948
:102F2C00114603F400030193019BFDF73FFA1420B3
:102F3C0003B05DF804EBFDF769BA03B05DF804FB70
:102F4C00005C004000F52C71D0F8EC02FFF779BB67
:102F5C00282303FB0103D0F8EC02D3F87C21FFF704
:102F6C009DBB282303FB0103D0F8EC02DA6BFFF7BF
:102F7C00CFBBD0F8EC02FFF763BC836810B5022B13
:102F8C00044601D0FDF75CF9D4F8EC020121FFF7FF
:102F9C0041FCD4F8EC02BDE81040FFF714BC000073
:102FAC0010B50446D0F8EC02FFF737FCA36923B147
:102FBC00024A136943F00603136110BD00ED00E0F3
:102FCC00D0F8EC02FFF732BC082310B51D4A0446BA
:102FDC001D48C0E90023022383600023C0F8EC42A3
:102FEC00C4F8C002C0E906330362FDF710FB08B158
:102FFC00FDF726F9002218231146D4F8C002FEF77B
:10300C007DF9582300228021D4F8C002FEF776F90E
:10301C00C02300228121D4F8C002FEF76FF94FF4CF
:10302C00887300220121D4F8C002FEF767F94FF42F
:10303C00807300228221D4F8C002FEF75FF90020D1
:10304C0010BD00BF005C00406C0E002008B5D0F82D
:10305C00C002FDF754FBBDE80840FFF74BBF10B5AD
:10306C001446D0F8C0021A462346FEF74FF8BDE8C6
:10307C001040FFF73FBF08B5D0F8C002FEF776F856
:10308C00BDE80840FFF736BF08B5D0F8C002FEF720
:10309C00CFF8BDE80840FFF72DBF08B5D0F8C00247
:1030AC00FEF7FAF8BDE80840FFF724BF282211F01C
:1030BC00800FD0F8C0321BBF01F07F0101FB022250
:1030CC0002FB01339B1814BF987893F86A01704780
:1030DC0008B5D0F8C002FDF72BFBBDE80840FFF7A0
:1030EC0009BF08B5D0F8C002FEF788F8BDE8084063
:1030FC00FFF700BF08B5D0F8C002FEF760F8BDE8D6
:10310C000840FFF7F7BED0F8C002FEF76FB800001A
:10311C00004870475C11002070477047034602441A
:10312C00934200D1704703F8011BF9E770B50026F4
:10313C000C4D0D4C641BA410A64209D100F01AF8DA
:10314C0000260A4D0A4C641BA410A64205D170BD82
:10315C0055F8043B98470136EEE755F8043B984781
:10316C000136F2E700320008003200080032000895
:10317C0004320008F8B500BFF8BC08BC9E46704786
:0C318C00F8B500BFF8BC08BC9E467047B8
:1031980000000000000000000102030406070809FF
:1031A80002030405060708090A0B0C0D0E0F101080
:1031B800010253544D6963726F656C656374726F75
:1031C8006E6963730053544D3332205669727475B7
:1031D800616C20436F6D506F727400434443204309
:1031E8006F6E6669670043444320496E7465726672
:0831F8006163650000020102A1
:043200003101000890
:043204000D010008B0
:103208000024F4000100000010000000ED24000874
:10321800AB240008F5230008000000002D23000857
:10322800B323000885230008000000000000000008
:103238000000000061230008552300086D230008E2
:103248007923000809024300020100C03209040082
:1032580000010202010005240010010524010001FB
:103268000424020205240600010705820308001051
:1032780009040100020A00000007050102400000DD
:10328800070581024000000009024300020100C056
:1032980032090400000102020100052400100105A2
:1032A8002401000104240202052406000107058206
:1032B8000308001009040100020A000000070501C4
:1032C8000200020007058102000200000A0600024F
:1032D800000000400100000009074300020104C08B
:1032E8003209040000010202010005240010010552
:1032F80024010001042402020524060001070582B6
:103308000308001009040100020A00000007050173
:10331800024000000705810240000000E92D000876
:103328006D2D0008712D0008752D0008112E00085C
:103338001D2E0008912E0008AD2E0008552E0008FD
:10334800C92E0008E52E0008120100020202004002
:10335800830440570002010203010000040309042A
:103368001A03000000000000000000000000000038
:0C33780000000000000000000000000049
:04000005080002B934
:00000001FF
